:020000040800F2
:10000000A81E0020E1010008A31A0008D318000868
:10001000A11A0008130300080120000800000000D6
:10002000000000000000000000000000490100087E
:1000300015030008000000008D010008391C0008AD
:10004000FB010008FB010008FB010008FB010008A0
:10005000FB010008FB010008FB010008FB01000890
:10006000FB010008FB010008FB010008FB01000880
:10007000FB010008FB010008FB010008FB01000870
:10008000FB010008FB010008FB010008FB01000860
:10009000FB010008FB010008FB010008FB01000850
:1000A000FB010008FB010008FB010008FB01000840
:1000B000FB010008FB010008FB010008FB01000830
:1000C000FB010008FB010008FB010008FB01000820
:1000D000FB010008E51F0008FB010008FB01000808
:1000E000FB010008FB010008FB010008FB01000800
:1000F000FB010008FB010008FB010008FB010008F0
:10010000FB010008FB010008FB010008FB010008DF
:10011000FB010008FB010008C51C0008FB010008EA
:10012000FB010008FB010008FB010008FB010008BF
:10013000DFF810D000F0CCF8004800473D2300085D
:10014000AFF30080A81E0020224B19680868B0E8B1
:10015000F00F80F30988BFF36F8F4FF0000080F33A
:1001600011884EF00D0E7047000000000648006830
:10017000006880F3088862B661B6BFF34F8FBFF3A3
:100180006F8F00DF00BF00BF08ED00E0EFF30980D4
:10019000BFF36F8F0F4B1A6820E9F00F106008B59E
:1001A0004FF0500080F31188BFF34F8FBFF36F8F74
:1001B00002F0EEFF4FF0000080F31188BDE8084028
:1001C00019680868B0E8F00F80F30988BFF36F8FF3
:1001D000704700BF18000020EFF305807047000053
:1001E0000648804706480047FEE7FEE7FEE7FEE7D1
:1001F000FEE7FEE7FEE7FEE7FEE7FEE7C31C0008BA
:1002000031010008202A04DB203A21FA02F0002103
:10021000704721FA02F3D040C2F120029140084316
:100220001946704740EA01039B0703D009E008C95B
:10023000121F08C0042AFAD203E011F8013B00F8AB
:10024000013B521EF9D27047D2B201E000F8012BF7
:10025000491EFBD270470022F6E710B513460A4646
:1002600004461946FFF7F0FF204610BD2DE9F05F68
:100270000546002092469B46884606468146402415
:100280001BE02846414647462246FFF7BBFF534640
:100290005A46C01A914110D311461846224600F022
:1002A00029F82D1A67EB01084F462246012000214C
:1002B00000F020F817EB00094E41201EA4F10104C4
:1002C000DFDC484631462A464346BDE8F09F000041
:1002D000064C074D06E0E06840F0010394E8070093
:1002E00098471034AC42F6D3FFF726FFCC3B00080A
:1002F000EC3B0008202A04DB203A00FA02F100203F
:1003000070479140C2F1200320FA03F31943904053
:100310007047FEE7704772B6FEE710B590F82110FF
:100320000022022905D00421816380F820200120C9
:1003300010BD01680B6823F00E030B6001680B68A9
:1003400023F001030B6090F84030C46B012101FAE7
:1003500003F3636080F8211080F82020104610BD60
:100360002DE9F05F90F821100024022903D0042128
:100370008163012485E001680A6822F00E020A60A8
:1003800001680A6822F001020A603F4E3E4FB21532
:10039000DFF8F4C0DFF8F090DFF8ECA0DFF8E8B0A9
:1003A000DFF8E4E00168783F13011502ACF1640C5A
:1003B000A9F15009AAF13C0AABF1280BAEF1140ED9
:1003C0004FF48018B14227D9B9420ED0614512D0FE
:1003D00049451DD0514518D0594518D0714501D116
:1003E000424615E0294EB14201D1012210E0274ECC
:1003F0001436B14201D110220AE0244E2836B1420F
:1004000006D0224A3C32914201D11A4600E02A46E7
:100410001E49091F0A602BE0B94213D0614517D06D
:10042000494522D051451DD059451DD0714501D1B6
:1004300042461AE0B14202D14FF0807215E0134EED
:10044000B14201D1012210E0104E1436B14201D167
:1004500010220AE00D4E2836B14206D00B4A3C323B
:10046000914201D11A4600E02A46074980394A6084
:10047000012180F82110002180F82010416B01B18A
:1004800088472046BDE8F09F8000024008040240F3
:1004900070B5044600F018F90546601C02D0044807
:1004A0000078044400F010F9401BA042FAD370BD5C
:1004B000080000202DE9F84FDFF8C8910024A9F1C9
:1004C000040B23460F2709F1040AABF1040ED1E017
:1004D0000125A54006EA0502AA4276D1DFF8A8C1A7
:1004E0004E68A6EB0C0866452BD00DDC032E34D0ED
:1004F00005DC36B3012E19D0022E2FD11BE0112EB0
:1005000016D0122E2AD119E0B8F5881F19D006DCB2
:10051000B8F5803F15D0B8F5801F1FD111E0B8F5B0
:10052000001F0ED0B8F5041F18D10AE0CB6815E003
:10053000CB681B1D12E0CB6808330FE0CB680C338F
:100540000CE08B682BB1012B4FF0080303D0456101
:1005500004E0042302E0056100E00023FF2A01D843
:10056000064601E000F104064FEA840501D9A5F131
:100570002005D6F8008007FA05FC28EA0C0803FAE3
:1005800005F548EA0508C6F800804D68ED0070D50D
:100590003E4DAE6946F00106AE61AD6924F003063A
:1005A00005F0010500953A4D06EB050CDCF8085006
:1005B000A607360F07FA06F825EA0805DFF8D48003
:1005C000404503D14FF0000825E052E0DFF8C88035
:1005D000404502D14FF001081DE0DFF8C0804045E2
:1005E00002D14FF0020816E0DFF8B480404502D196
:1005F0004FF003080FE0DFF8AC80404502D14FF028
:10060000040808E0DFF8A080404502D14FF005085B
:1006100001E04FF0060808FA06F848EA0508CCF8A9
:1006200008804D68D9F80060ED024D4601D51643AB
:1006300000E096432E604D68DAF80060AD02554642
:1006400001D5164300E096432E604D68DBF800604C
:10065000AD035D4601D5164300E096432E604D681C
:10066000DEF80060ED03754601D5164300E09643C1
:100670002E60641C0A681646E2407FF429AFBDE88C
:10068000F88F000008040140000011100010024023
:100690000000014000080140000C01400010014032
:1006A0000014014000180140001C0140C26821EA0A
:1006B00002030A4043EA0241016170470AB1016145
:1006C00070470904FBE7000001488068704700009C
:1006D0000800002070B5040025D094F83D000025E6
:1006E00020B984F83C50204600F0B8F8242084F863
:1006F0003D002068016821F0010101602068016867
:1007000041F4004101602068016821F4004101606A
:1007100000F050FA4D4A6168914201D84C4900E01E
:100720004C49884201D2012070BD4B492368B0FB7F
:10073000F1F15E6826F03F060E435E606368934207
:1007400006D94FF4967359434FF47A73B1FBF3F122
:100750002368491C1E6A26F03F063143196261680E
:10076000914210D84900401EB0FBF1F2521CC2F376
:100770000B02042A01D2042022E0B0FBF1F0401C5D
:10078000C0F30B001CE0A268F2B301EBC10303EB62
:100790000116431EB3FBF6F35B1C43F480431B05B9
:1007A00049D092B301EBC10202EB0111401EB0FB34
:1007B000F1F0401CC0F30B0040F4804040F40040D6
:1007C0002168CA694CF6FF739A431043C861D4E9A3
:1007D000071001432068026822F0C0021143016043
:1007E000D4E9030101432068826848F2FF339A4349
:1007F00011438160D4E9050108432168CA6822F0E9
:10080000FF021043C86001E00EE016E020680168B6
:1008100041F0010101602564202084F83D0025633A
:1008200084F83E50002070BD01EB4106431EB3FB2F
:10083000F6F35B1CB3E70120C2E701EB4101401E68
:10084000B0FBF1F0401CC0F30B00B7E7A08601003D
:1008500080841E0000093D0040420F0010B586B0A4
:100860000021009101910291039100680F49884293
:100870001AD10F4CA06940F00800A061A069694638
:1008800000F008000490C020009012200190032086
:1008900003900848FFF70EFEE06940F40010E061A5
:1008A000E06900F40010049006B010BD0054004050
:1008B00000100240000C0140024881680278114497
:1008C0008160704708000020074810B5016841F0BA
:1008D00010010160032000F0A5F80F2000F006F8D9
:1008E00000F050F8002010BD0020024030B5054651
:1008F0001F4887B0C16941F01001C161C06906A9F4
:1009000000F01000009001A800F034F90498B0B194
:1009100000F050F940001749174AB0FBF1F11748B1
:10092000491E0260416040F2E7320021C0E9032124
:100930008160816100F09FFC040003D015E000F0AD
:1009400039F9E8E70D4800F0C5FC04000DD1362068
:1009500000F03AF8102D07D200222946362000F088
:1009600041F80748056000E0012407B0204630BD8B
:100970000010024040420F0000100040880100209B
:100980000C0000200E4808B5816941F00101816129
:10099000816901F001010091C16941F08051C1619B
:1009A000C069002200F0805000900F21901E00F0DE
:1009B00019F80448416821F0E061416008BD000079
:1009C0000010024000000140002809DB00F01F0277
:1009D000012191404009800000F1E020C0F80011A1
:1009E00070470000F0B40E4B1B680C46C3F30223A3
:1009F000C3F10705042D00D90425191D072901D2CB
:100A0000002300E0DB1E012606FA05F1491E214005
:100A100099409E40761E16403143F0BC01F002BB67
:100A20000CED00E0064900F0070208684FF6FF03EE
:100A3000184040EA0220034A104308607047000053
:100A40000CED00E00000FA052DE9F0470F46050027
:100A500061D0434E306800F00700B84209D23068D8
:100A600020F0070038433060306800F00700B842DB
:100A700051D128683B4C810712D5400703D56068E7
:100A800040F4E06060602878000703D5606840F4B7
:100A9000605060606068A96820F0F0000843606002
:100AA0002878C00728D06868012810D0216802285B
:100AB00010D0890700292EDA616821F00301014373
:100AC0006160FFF701FE804641F288390DE0216840
:100AD0008903EFE78901EDE7FFF7F6FDA0EB0801D9
:100AE000494502D90320BDE8F0876068696800F0D5
:100AF0000C00B0EB810FEFD1306800F00700B84276
:100B00000BD9306820F0070038433060306800F0BF
:100B10000700B84201D00120E5E72878400705D555
:100B20006068E96820F4E0600843606028780007A6
:100B300006D56068296920F4605040EAC100606011
:100B400000F058F86168084AC1F30311515CC840CD
:100B50000649086006480068FFF7C8FE0020C2E7A3
:100B60000020024000100240A63B000814000020B4
:100B70000C0000200F2202600C4A536803F00303AC
:100B80004360536803F0F0038360536803F4E06349
:100B9000C36052684FF4E06303EAD2020261044882
:100BA000006800F007000860704700000010024075
:100BB000002002400448054900684968044AC1F31E
:100BC0000221515CC8407047140000200010024010
:100BD000B63B00080448054900684968044AC1F367
:100BE000C221515CC8407047140000200010024030
:100BF000B63B00080E4A51680E4801F00C03042B66
:100C000011D0082B0FD10C48C1F38343C903C05C3A
:100C10000AD55168084AC1F34041921E515C054A09
:100C20005043B0FBF1F0704704494843704700005F
:100C30000010024000127A00963B000800093D00B7
:100C40002DE9F84F040070D02078C04DC00749D07E
:100C50006868C0F38100012807D06868C0F381008C
:100C6000022809D16868C00306D52868800339D5F1
:100C700060680028E7D035E06068B0F5803F0BD0B1
:100C800010B1B0F5A02F11D0286820F48030286072
:100C9000286820F4802002E0286840F48030286032
:100CA000606890B1FFF710FD06460AE0286840F43E
:100CB00080202860F0E700BFFFF706FD801B642856
:100CC00073D828688003F7D50CE0FFF7FDFC0646D3
:100CD00005E000BFFFF7F8FC801B6428F0D8286807
:100CE0008003F7D420789A4E80074FF001094FF027
:100CF000000839D5686810F00C0F07D06868C0F399
:100D00008100022809D16868C00306D428688007DA
:100D100014D52069012808D110E02069B0B1C6F8C7
:100D20000090FFF7D1FC074605E00AE1FFF7CCFC95
:100D3000C01B0228C4D828688007F7D528686169D5
:100D400020F0F80040EAC10028600DE0C6F80080FD
:100D5000FFF7BAFC074604E0FFF7B6FCC01B022809
:100D600023D828688007F7D4207800072CD5794845
:100D7000A169D9B1C0F80090FFF7A6FC074604E0CE
:100D8000FFF7A2FCC01B02280FD8686A8007F7D5BE
:100D900071484FF4FA510068B0FBF1F0009000BFC9
:100DA0000098411E0091FAD20EE080E0C0F8008069
:100DB000FFF78AFC074604E0FFF786FCC01B022809
:100DC00075D8686A8007F7D42078400760D5E8694D
:100DD0000027C00008D4E86940F08050E861E86965
:100DE000012700F0805000905C480168C90513D4C9
:100DF0000168834641F480710160FFF765FC82461B
:100E000006E000BFFFF760FCA0EB0A0064284ED8A4
:100E1000DBF80000C005F5D5E06801280AD008B16C
:100E2000052813D0286A20F001002862286A20F0E3
:100E3000040002E0286A40F001002862E06841F204
:100E4000883B98B1FFF740FC82460BE0286A40F0EF
:100E500004002862EEE700BFFFF736FCA0EB0A01B2
:100E600059455AD8286A8007F6D50CE0FFF72CFCC4
:100E7000824605E0FFF728FCA0EB0A0159454CD853
:100E8000286A8007F6D41FB1E86920F08050E86135
:100E9000E06988B36968C1F38101022944D002285E
:100EA000C6F8608004D0FFF70FFC044638E034E059
:100EB000FFF70AFC074604E0FFF706FCC01B022808
:100EC0002BD828688001F7D4206AB0F5803F05D17F
:100ED0006868A16820F4003008436860D4E908011C
:100EE0000843696821F4741108436860C6F860908B
:100EF000FFF7EAFB044606E025E000BFFFF7E4FB4E
:100F0000001B022809D828688001F7D51BE000BF24
:100F1000FFF7DAFB001B022802D90320BDE8F88F97
:100F200028688001F4D40EE00128F7D06868226AAE
:100F300000F48031914204D1616A00F4701088425B
:100F400001D00120EAE70020E8E70000001002409D
:100F50000000424280044242140000200070004021
:100F600070B5040009D0606A002540B12561656153
:100F7000A56294F8510040B10CE0012070BD60689A
:100F8000B0F5827FF4D0E561F2E784F85050204656
:100F900000F040F8022084F851002068016821F038
:100FA00040010160A088218900F4827001F40441AD
:100FB0000843A18901F400610843217C01F002018A
:100FC0000843217D01F001010843218B01F40071E8
:100FD0000843217F01F03801084394F8201001F004
:100FE00080010843218D01F4005108432168086005
:100FF000A069042101EA1040216848602068C169A5
:1010000021F40061C1616565012084F85100002070
:1010100070BD000030B585B00024009401940294A6
:10102000039400681449884223D11448816941F42B
:1010300080518161816901F480510491816941F09D
:101040000401816180690E4D00F004000490A0202D
:101050000090022001900320039069462846FFF784
:1010600029FA4020CDE90004694628460294FFF79A
:1010700021FA05B030BD00000030014000100240F0
:10108000000801402DE9FF4F81B0044690F8500060
:1010900000260E9F1D4693464FF0010901280FD0F0
:1010A0004FF0010A84F850A0FFF70EFB804694F839
:1010B0005100616801280DD0B1F5827F08D103E0AD
:1010C000022005B0BDE8F08FA16809B9042801D05D
:1010D0000226C9E00298002865D0BBF1000FFBD0C2
:1010E000002DF9D094F85100042802D0052084F88E
:1010F000510000206065C4F838B0E587A5870299E3
:101100002163E586A586206460642068016849063D
:1011100003D4016841F040010160E068B0F5006F60
:10112000606803D0F0B3012D47D081E008B1012DF4
:101130003CD1206B21680088C860206B801C206334
:10114000E08E401EE08631E02068816889070FD577
:10115000E18E69B1B9F1010F0AD1216B0988C16033
:10116000206B801C2063E08E401EE0864FF000095B
:1011700020688168C9070CD0E18F51B1C068A16BAC
:101180000880A06B801CA063E08F401EE0874FF0BA
:101190000109FFF799FAA0EB0800B84206D3781CC2
:1011A00004D001E009E05BE003265BE0E08E00286C
:1011B000CAD1E08F0028C7D140E0206B21680078B9
:1011C0000873206B401C2063E08E401EE0862FE0F9
:1011D0002068816889070FD5E18E69B1B9F1010FE7
:1011E0000AD1216B09780173206B401C2063E08ECB
:1011F000401EE0864FF0000920688168C9070CD0C6
:10120000E18F51B1C068A16B0870A06B401CA06356
:10121000E08F401EE0874FF00109FFF755FAA0EB81
:101220000800B84202D3781C02D0BAE7002FB8D029
:10123000E08E0028CCD1E08F0028C9D14246394643
:10124000204600F02FFC18B10126202060650BE03D
:10125000A06818B92068C16880680090606D08B106
:10126000012601E084F851A0002084F850003046A7
:1012700027E77047704710B5040003D094F83D008D
:1012800010B107E0012010BD002084F83C0020468A
:1012900000F01EF8022084F83D00211D206800F0B7
:1012A00017FD012084F8460084F83E0084F83F00D2
:1012B00084F8400084F8410084F8420084F8430038
:1012C00084F8440084F8450084F83D00002010BDF7
:1012D0007047000090F83D10012901D001207047AF
:1012E000022180F83D100168CA6842F00102CA601C
:1012F00000680E4988420ED00D4988420BD0B0F1EB
:10130000804F08D00B49884205D00B49884202D053
:101310000A49884204D1816801F00701062903D0F7
:10132000016841F00101016000207047002C01407C
:10133000003401400004004000080040000C004060
:10134000704770B50446006801694FF00005C94355
:10135000890715D4C168C943890711D4E91E016101
:1013600001202077206880698007204602D0FFF79F
:10137000E7FF04E000F098F8204600F096F82577A3
:1013800020680169C943490717D4C168C94349079F
:1013900013D46FF004010161022020772068806976
:1013A00010F4407F204602D0FFF7CAFF04E000F0AF
:1013B0007BF8204600F079F8257720680169C94359
:1013C000090716D4C168C943090712D46FF0080190
:1013D0000161042020772068C0698007204602D080
:1013E000FFF7AEFF04E000F05FF8204600F05DF884
:1013F000257720680169C943C90617D4C168C94364
:10140000C90613D46FF0100101610820207720680D
:10141000C06910F4407F204602D0FFF791FF04E03E
:1014200000F042F8204600F040F825772068016976
:10143000C943C90708D1C168C943C90704D1891E76
:101440000161204600F032F820680169C9430906AD
:1014500009D4C168C943090605D46FF08001016150
:101460002046FFF706FF20680169C943490609D4F1
:10147000C168C943490605D46FF0400101612046A7
:1014800000F01EF820680169C94389060BD4C168C1
:10149000C943890607D46FF0200101612046BDE8E9
:1014A0007040FFF7E7BE70BD7047704700680349A2
:1014B000884201D1FFF700BA7047000000100040D9
:1014C0007047704770470000F8B501680446086827
:1014D000CA684B6910F00F0F4FF0000559D003F0A8
:1014E000010602F49077374365D0C10705D0D105D6
:1014F00003D5616C41F001016164410705D5D9074D
:1015000003D0616C41F002016164810705D5D90700
:1015100003D0616C41F004016164010707D502F05A
:101520002001314303D0616C41F008016164616CBA
:1015300000293AD0800604D5900602D5204600F056
:101540003CFC20684069616CC0F38010090700D43E
:1015500060B3204600F00AFC20684069400621D5AF
:101560002068143050E8001F21F0400140E80012CC
:10157000002AF5D1E06BA8B16D494163E06BFEF73D
:10158000EFFE002811D0E06B416B01B0BDE8F040E8
:10159000084783060FD593060DD52046BDE8F840D1
:1015A00000F00BBC2046FFF78DFFF8BD2046FFF78B
:1015B00089FF6564F8BD266B2023012E7CD1C60609
:1015C0007AD5D60678D508684868009048694FF003
:1015D0000206400640D5E16B086840680004000C34
:1015E000E8D0A28D8242E5D9E085886920282DD0F7
:1015F00020680C3050E8001F21F4807140E8001290
:10160000002AF5D12068143050E8001F21F00101B4
:1016100040E80012002AF5D12068143050E8001F7D
:1016200021F0400140E80012002AF5D184F8423050
:10163000256320680C3050E8001F21F0100140E8BD
:101640000012002AF5D1E06BFEF767FE6663A08DFD
:10165000E18D401A81B22AE0A08DE18D401A81B25D
:10166000E08D0028A6D00029A4D022680C3252E8D0
:10167000000F20F4907042E80007002FF5D1206899
:10168000143050E8002F22F0010240E80027002F1C
:10169000F5D184F84230256320680C3050E8002FE3
:1016A00022F0100240E80023002BF5D166632046AB
:1016B000FFF707FFF8BDFFE705062BD5150629D56F
:1016C00094F841002128F5D1A068B0F5805F01D1E0
:1016D0002069B0B1206A411C21622168007848600D
:1016E000E08C401E0004000CE084E3D12068C16857
:1016F00021F08001C1602068C16841F04001C160F3
:10170000D8E7206A0088C0F308004860206A801C7F
:101710002062E5E74006CDD55006CBD5CA68204605
:1017200022F04002CA6084F8413000F0D1F8C1E7ED
:101730005D1D000870B5040004D094F84100002538
:1017400010B106E0012070BD84F84050204600F042
:1017500023F8242084F841002068C16821F4005156
:10176000C160204600F08AFB2068016921F49041A5
:1017700001612068416921F02A0141612068C16846
:1017800041F40051C1606564202084F8410084F870
:1017900042006563002070BD30B585B00024009420
:1017A0000194029403940068184988422CD1184887
:1017B000816941F480418161816901F48041049132
:1017C000816941F0040181618069124D00F00400DB
:1017D00004904FF4007000900220019003200390C9
:1017E00069462846FEF766FE2815CDE900046946DD
:1017F00028460294FEF75EFE002205212520FFF711
:10180000F1F82520FFF7E0F805B030BD00380140C1
:10181000001002400008014090F84230202B01D017
:101820000220704721B11AB10023036300F082BB8C
:101830000120704770472DE9F843044690F84100B5
:101840001F4616460D46202802D00220BDE8F88328
:101850007DB176B100206064212084F84100FEF75C
:1018600033FFA6848046E684A068B0F5805F02D08E
:1018700003E00120EAE7206910B12E4600250EE0C2
:1018800000260CE08021204600F06FFBA0B9AEB12D
:1018900016F8010B21684860E08C401EE084E08C63
:1018A00043464FF0000200970028EBD14FF0400173
:1018B000204600F05AFB30B10320C7E735F8020B91
:1018C000C0F30800E6E7202084F841000020BDE7CF
:1018D0007047FEE71CB5094A0021094800F0BAFD2F
:1018E0000849086000210120CDE900010B464202B1
:1018F00005A1074801F02EFF1CBD0000703B000849
:10190000051C0008000000206D795461736B000015
:10191000712300082DE9F04186B000242748009487
:10192000019402940394816941F0100181618169FD
:1019300001F010010491816941F004018161816924
:1019400001F004010491816941F00801816180691D
:101950001B4F00F008000122049011463846FEF7A4
:10196000ADFEDFF86080012223214046FEF7A6FE8F
:101970007814CDE90004694638460294FEF79AFDD2
:101980000125032603960095CDE9015469463846A2
:10199000FEF790FDCDE9005469460B480294FEF72E
:1019A00089FD2320CDE90005CDE902466946404680
:1019B000FEF780FD06B0BDE8F08100000010024097
:1019C00000100140000C0140000801400D4810B516
:1019D0000B4901600C49416000214FF48042816055
:1019E000C0E9031241618161C1610162FEF772FECB
:1019F000002803D0BDE81040FEF78DBC10BD0000EC
:101A00000054004094000020801A060010B5124CCB
:101A10001048022120604FF4827060600020A060B6
:101A2000C4E90301012161614902A1610821C4E9FE
:101A300007106062A0620A20E0622046FFF790FA79
:101A400008B1FEF768FC2068016841F040010160C0
:101A500010BD000000300140E80000200E4810B525
:101A60000C4901604FF4E1314160002181600C229A
:101A7000C160C0E904128161C161FFF75BFE08B17A
:101A8000FEF749FCBDE81040012204490248FFF777
:101A9000C3BE0000003801404001002004000020C7
:101AA000FEE7FEE738B50B4600920446002280218F
:101AB00000F04CF8002804D0606D40F02000606514
:101AC000032038BD2DE9F041124F00220121384694
:101AD000FEF7F4FD9F2000F023F8002000F020F82E
:101AE0000646002000F01CF80446002000F018F81C
:101AF0000546012211463846FEF7E0FD300440EA73
:101B000004242C43214604A000F07CFA2046BDE8C2
:101B1000F081000000100140307825780D0A0000A7
:101B200001B582B000208DF804004FF47A70009067
:101B3000012301AA02A90448FFF7A4FA0028FDD155
:101B40009DF804000EBD0000E80000202DE9F843D8
:101B50001E46914688460446089DFEF7B5FD401B8B
:101B6000351AFEF7B1FD074625480068C0F3CB30B3
:101B7000684338E0701C37D0FEF7A6FDC01BA842B2
:101B800003D215B1009860B32CE02068416821F0C1
:101B9000E00141606068B0F5827F0BD1A068B0F5CC
:101BA000004F02D0B0F5806F04D12068016821F0A9
:101BB00040010160A06AB0F5005F09D120680168AA
:101BC00021F4005101602068016841F40051016076
:101BD000012084F85100002084F850000320BDE863
:101BE000F8830025401E00902068816838EA0100D3
:101BF00004D000214945BDD10020F0E70121F9E7DB
:101C000014000020002001F0EDF94FF47A7423460F
:101C10000D2204A10748FFF70EFE204600F0C4FB8A
:101C2000F5E7000044656661756C745461736B0D73
:101C30000A0000004001002010B5502080F31188F8
:101C4000BFF34F8FBFF36F8F01F0F0FD18B1044960
:101C50004FF080500860002080F3118810BD000014
:101C600004ED00E030B58FB028216846FEF7F3FAA6
:101C700014210AA8FEF7EFFA01210804CDE90010AB
:101C80000024029402250491CDE907504FF4E0109E
:101C900009906846FEF7D4FF08B172B6FEE70F2040
:101CA000CDE90A054FF48060CDE90C4002210AA875
:101CB0000E94FEF7C9FE002801D072B6FEE70FB001
:101CC00030BD70470148FFF73CBB00008801002091
:101CD000F0B502681C4B1D4D1D4E1E4F1E4C4FF0A3
:101CE000804C984209D0A04207D0604505D0A84258
:101CF00003D0B04201D0B84204D122F0700E4A683D
:101D000042EA0E02984209D0A04207D0604505D0B1
:101D1000A84203D0B04201D0B84203D122F44075AA
:101D2000CA682A434D6922F080022A4302608A6809
:101D3000C2620A688262984201D0A04201D1096958
:101D4000016301214161F0BD002C0140000400400D
:101D500000080040000C00400034014010B5406A0B
:101D60000021C185C184FFF7ADFB10BD01680C31B6
:101D700051E8002F22F4907241E80023002BF5D1A6
:101D80000168143151E8002F22F0010241E80023DC
:101D9000002BF5D1016B012909D101680C3151E803
:101DA000002F22F0100241E80023002BF5D1202162
:101DB00080F8421000210163704708B590F8421086
:101DC000222901D0022008BD82684FF480539A4234
:101DD00001D1016921B1816A9A421BD04AB10AE05E
:101DE0000268816A5268C2F308020A80816A891C0B
:101DF00008E0026972B10268526802F07F020A705C
:101E0000816A491C8162C18D491E0904090CC18582
:101E100003D01BE002685268F1E70168CA6822F04B
:101E20002002CA600168CA6822F48072CA60016830
:101E30004A6922F001024A61202180F84210002103
:101E40004163026B012A03D0FFF7F4FC002008BDB8
:101E5000016301680C3151E8002F22F0100241E8C3
:101E60000023002BF5D101680A68D20602D50A6862
:101E700049680091818DFFF724FBE7E770B50446C0
:101E800000680169E26821F4405111430161216950
:101E9000A0680843616908432168CA6841F20C637D
:101EA0009A430243CA6020684169A26921F44071E3
:101EB000114341611E492068884202D1FEF78AFE23
:101EC00001E0FEF777FE00EBC00101EB0012606855
:101ED00064218000B2FBF0F3B3FBF1F36FF018065E
:101EE0007343B2FBF0F5B2FBF0F605EB830532234A
:101EF00003EB0515B5FBF1F5B6FBF1F605F0F005C2
:101F000005EB0615B2FBF0F6B2FBF0F0B0FBF1F01A
:101F10006FF01802504306EB800003EB0010B0FB9B
:101F2000F1F0216800F00F002844886070BD0000C7
:101F30000038014081628285C285002141642221EE
:101F400080F84210016921B10168CA6842F48072C8
:101F5000CA6001684A6942F001024A610068C168CA
:101F600041F02001C160002070472DE9F041984602
:101F700017460E460446069D27E0681C25D02DB165
:101F8000FEF7A2FBA0EB0800A8421ED920680C3087
:101F900050E8001F21F4D07140E80012002AF5D16A
:101FA0002068143050E8001F21F0010140E80012C1
:101FB000002AF5D1202084F8410084F84200002056
:101FC00084F840000320BDE8F0812068006836EA0C
:101FD000000004D00020B842CFD00020F3E7012059
:101FE000F9E70000054800680168C943890602D482
:101FF0004168C9B241600148FFF766BA400100205C
:10200000FEE700000FB4054B10B503A9044A02987F
:1020100000F028F810BC5DF814FB00002523000830
:10202000900000200907090E002804DB00F1E020E1
:1020300080F80014704700F00F0000F1E02080F8F5
:10204000141D704702E008C8121F08C1002AFAD107
:1020500070477047002001E001C1121F002AFBD128
:10206000704700002DE9FF4F8DB09B460F46044698
:10207000002606E025280BD05A460F999047641C8D
:10208000761C20780028F5D111B03046BDE8F08FDD
:102090000025A8460122984900E0054314F8013FB5
:1020A000203B02FA03F00842F7D120782E2817D1FE
:1020B00014F8010F45F004052A280ED06FF02F0206
:1020C0002078A0F1300109290AD808EB880102EB39
:1020D000410100EB0108641CF2E757F8048B641C13
:1020E00020786C280DD004DC4C2812D06A2811D13D
:1020F00004E074280DD07A280CD10AE045F40015CC
:1021000007E0617845F48015814202D1641C05F531
:102110008015641C2078692844D008DC0028B3D0DE
:10212000582867D063280FD0642808D13AE0702877
:1021300065D0732812D075285AD078285AD05A46BC
:102140000F999047761CD5E017F8040B8DF8000026
:1021500000208DF80100E946012003E057F8049BB8
:102160004FF0FF3069074FF0000501D40AE06D1C05
:1021700045450DDA8542FADB19F805100029F6D13C
:1021800006E06D1C8542FCDB19F805100029F8D12A
:102190002E4404E019F8010B5A460F9990476D1E22
:1021A000F8D2A7E00A200021CDE90801C5F30250CA
:1021B00002280CD001CFC117021E71F100020CDA07
:1021C0000023D0EB030063EB01012D2208E0FF1D8B
:1021D00027F00707F7E80201EEE72A0504D52B22CE
:1021E0008DF8282001223CE0EA073AD02022F7E7C8
:1021F0000A2000E010200021CDE9080107E01020AE
:10220000002145F00405CDE908014FF00808C5F3A9
:102210000250022810D001CF00214FF0000A2A07F7
:1022200020D52278702A0DD0DDE908C38CF0100C7F
:102230005CEA030C0CD015E0FF1D27F00707F7E858
:102240000201EAE740228DF828204FF0010A0CE055
:1022500050EA010306D030238DF828308DF829206C
:10226000022292462278582A04D024A20DF1200995
:102270000B9209E026A2F9E7DDE90823FDF7F6FF56
:102280000B9B9B5C09F8013D50EA0102F4D1ADEBD8
:10229000090020300890680701D44FF00108089920
:1022A000884503DD0898A8EB000000E00020804688
:1022B000002506E00AA85A46405D0F9990476D1C1C
:1022C000761C5545F6DB04E030205A460F999047BE
:1022D000761CB8F10001A8F10108F5DC05E019F859
:1022E000010B5A460F999047761C0899481E089092
:1022F0000029F4DC641CC4E60928010030313233C3
:102300003435363738396162636465660000000031
:10231000303132333435363738394142434445461B
:102320000000000013B54FF47A7301226946024899
:10233000FFF781FA00981CBD40010020FEF7C4FAA7
:10234000FFF790FCFFF7E6FAFFF788FBFFF73EFB8D
:10235000FFF75CFBFFF7B6FB00F040F8FFF7BAFAB7
:1023600000F058F840F6B8342046FEF791F8FBE745
:102370004FF47A74074D66002346082206A10948E7
:10238000FFF759FA01212846FEF790F9304600F090
:1023900003FEF1E7000C01406D795461736B0D0A87
:1023A000000000004001002010B5EFF3058149B99D
:1023B000EFF3108131B908490968022905D1EFF31B
:1023C000118111B16FF0050403E0002408B100F0A1
:1023D000E3FD204610BD000068000020EFF30580FB
:1023E00058B9EFF3108040B909490868022801D0B4
:1023F00030B109E0EFF3118030B16FF005007047A4
:1024000001200860002070474FF0FF307047000047
:102410006800002010B5EFF3058060B9EFF310807D
:1024200048B90B490868022802D0012806D00BE001
:10243000EFF3118040B16FF0050010BD022008607D
:1024400000F05AFE002010BD4FF0FF3010BD00001C
:1024500068000020F0B585B04FEA01034FF000049A
:10246000EFF305810394A1BBEFF3108189BB2149F0
:102470000968022902D1EFF3118151BB48B38026CC
:1024800018218DF8104004AD42B3176807B13D46DE
:1024900097691FB139467F1E382F02D21779FF077F
:1024A00002D0002005B0F0BD576907B1BE08D2F8D0
:1024B00008C0BCF1000F0DD0D4685C2C18D3126991
:1024C0003AB137B18DE806103246294601F06FF96E
:1024D00003900DE0D7685FB912694AB903AACDE944
:1024E0000012B2B2294601F035F9012800D0039458
:1024F0000398D7E7680000202DE9F041134C0F4600
:10250000054666692068001D00F016FC681C07D1AE
:1025100037B12168BDE8F0410D48091D00F05CBCF1
:1025200020683544B5424560216805D2A068BDE801
:10253000F041091D00F038BC6068091D00F034FC52
:10254000206B854200D22563BDE8F0811800002091
:10255000C00600202DE9F041054600F049FC2D4C55
:102560002069401C206120682B4F10B1E06930B316
:102570002BE025602069012827D1002606EB860084
:1025800007EB800000F002FC761C382EF6D32348BF
:1025900000F0FCFB2148143000F0F8FB1F48283005
:1025A00000F0F4FB1D483C3000F0F0FB1B485030BD
:1025B00000F0ECFB194860601430A06005E0206872
:1025C000E96AC06A884200D82560E06A401CE0627F
:1025D0006864E86AA169884200D9A06100EB8000C4
:1025E00007EB8000291D00F0F7FB00F021FCE069FB
:1025F00000280CD02068E96AC06A884207D20849DE
:102600004FF080500860BFF34F8FBFF36F8FBDE86E
:10261000F081000018000020100200207006002049
:1026200004ED00E038B500F0E3FB104CA068C8B939
:102630000F4800F0ABFB0E48143000F0A7FB0C482D
:102640002060143060600A4B00202833009003F1B2
:10265000500210210A2000F021FEA06010B105A157
:1026600000F064FCBDE8384000F0E2BB54000020FC
:10267000D4060020546D72510000000030B4026C8A
:102680000B46002A0BD0C1681144C1604468A142C6
:1026900001D30168C16030BC1846FDF7C3BD30BC32
:1026A00070472DE9F041856B174604460026026C01
:1026B00082B1C7B1E068FDF7B5FDE168206C091A89
:1026C000E1602268914202D26168081AE060022F3C
:1026D00016D017E02068A8B9606801F00BF906462B
:1026E000002060600EE0A068FDF79CFD216CA068F2
:1026F0000844A0606168884204D32068A06001E0BB
:1027000005B16D1E6D1CA5633046BDE8F08110B5A6
:10271000044690F8590058B101280CD002280FD077
:10272000502080F31188BFF34F8FBFF36F8FFEE708
:10273000206B00F091FB2046BDE8104000F08CBB00
:1027400010BD000010484FF44061420706D0C01D84
:102750000D4920F00700411AC1F540610B4A0023E2
:102760000144C2E900030839103A21F00701116061
:102770004B600B600B1AC0E9001393604FF00040F0
:102780005360D06070470000A40E00207C00002041
:10279000144E154CA6F29C474FF08058DFF84C9031
:1027A00012E000BF00F024FBF068C568281D00F0AF
:1027B000C3FA2069401E2061E068401EE06000F01E
:1027C00037FB2846FFF7A3FFE0680028EAD1386806
:1027D0000128F9D9C9F80080BFF34F8FBFF36F8F7D
:1027E000F2E70000AC0600201800002004ED00E035
:1027F00070B51D46049C51B1C4F80020C4E90F0116
:102800000121204600F07EFD84F84C5070BD24600C
:10281000F4E72DE9F0470E46DDE9098417468246C4
:1028200091009946089DA522206BFDF70DFD6FF0E4
:102830000301206B01EB8701084420F007077807AC
:1028400007D0502080F31188BFF34F8FBFF36F8FF5
:10285000FEE72218315C82F83410315C11B1401C63
:102860001028F6D3002684F84360382D00D337258E
:10287000E562C4E91356201D00F093FA04F1180034
:1028800000F08FFA2461C5F138006462A0616665CA
:1028900084F858604A465146384600F03BFA2060BA
:1028A000B8F1000F01D0C8F80040BDE8F087000083
:1028B00030B5114900E011460A688242FBD34B68EB
:1028C0005C18844203D14068184448600846436855
:1028D0001C18944209D1084C103C2468A24209D02B
:1028E00052681A4442600A6812680260814200D04D
:1028F000086030BD0460F9E77C00002070B500245A
:1029000041600B4D0061914206D8D11A8269914213
:1029100006D2011D686807E09A4203D2994201D3AA
:10292000012403E0011D286800F03EFA204670BD36
:102930005400002010B5044600F05AFAA06B28B1EC
:102940005FF0000400F074FA204610BD0124F9E79E
:1029500030B589B0304D55E00498002806DADDE93D
:102960000601059A9047049800284BDB069C606995
:1029700010B1201D00F0E0F902A800F0B9F80246FD
:1029800004980A283ED2DFE800F00505053D263709
:1029900005053D260598A169034601442046FFF739
:1029A000ADFF00B3616A20468847E069012829D15C
:1029B000002000900598A16900234218194620467E
:1029C00001F0A2F878B9502080F31188BFF34F8F3F
:1029D000BFF36F8FFEE70598A06128B181181346F9
:1029E0002046FFF78BFF0DE0502080F31188BFF3E6
:1029F0004F8FBFF36F8FFEE794F82C0010B920467D
:102A000000F02AFA002204A9A86800F0CDFD0028F1
:102A1000A2D109B030BD0000540000202DE9FC41D6
:102A20000F46054600F0ACFB01A800F061F8044633
:102A3000019818B100F0D6FFBDE8FC81224EAFB17D
:102A400070680068A8B30027291B3A46B06800F0F8
:102A500081FA00F0C7FF0028EED11C494FF08050EA
:102A60000860BFF34F8FBFF36F8FE5E7A542EBD848
:102A700000F0B8FF30682746C068C468201D00F029
:102A80005BF9E069012810D1A0692B4641193A464B
:102A90002046FFF733FF40B1002003460146009077
:102AA0002A46204601F030F820B1616A2046884766
:102AB000C2E707E0502080F31188BFF34F8FBFF3C8
:102AC0006F8FFEE70127BFE75400002004ED00E010
:102AD00006484168096829B14168C968C9684968F8
:102AE000016370474FF0FF31FAE700001800002043
:102AF00070B5054600F094FE064E044630698442E7
:102B000003D200F009F8012000E0002028602046F0
:102B1000346170BD54000020F8B5194D1FE0C06845
:102B2000C4680668201D00F007F9616A20468847DE
:102B3000E069012813D1A0693044B04206D924616C
:102B40006060211D286800F02FF908E0002003468E
:102B5000014600903246204600F0D6FF38B1286882
:102B600001680029DBD16968C5E90010F8BD502073
:102B700080F31188BFF34F8FBFF36F8FFEE7000024
:102B80005400002008484068401C4FF0500080F37B
:102B9000118804D0BFF34F8FBFF36F8FFEE7BFF3F1
:102BA0004F8FBFF36F8FFEE784000020074C206833
:102BB000016841B1C0680021D0F80000FFF72EFF86
:102BC000FFF7C6FEF3E701210020F7E754000020DD
:102BD0002DE9F041044600F00BF994F9455004F159
:102BE000240609E0606A48B1304600F0C3FE08B12F
:102BF00000F048FA6D1E6DB2002DF3DC4FF0FF3689
:102C000084F8456000F014F900F0F2F894F94450AB
:102C100004F1100709E0206948B1384600F0AAFE27
:102C200008B100F02FFA6D1E6DB2002DF3DC84F8B0
:102C30004460BDE8F04100F0FBB800002DE9F04130
:102C40000546002700F09CFA314E306808B9FFF7BE
:102C500079FDF06805424BD1C5B3083568070ED041
:102C600005F00700C0F108000544680707D05020B0
:102C700080F31188BFF34F8FBFF36F8FFEE72DB343
:102C80007068854234D82248103001460C6801E053
:102C900020460C466168A94202D221680029F7D17A
:102CA00031688C4224D00768216801606068083769
:102CB000411B10290FD96019420708D0502080F31A
:102CC0001188BFF34F8FBFF36F8FFEE710E04160B5
:102CD0006560FFF7EDFD61687068401A7060B2686A
:102CE000904200D2B060F06801430020C4E90001C6
:102CF00000F078FE780707D0502080F31188BFF3EA
:102D00004F8FBFF36F8FFEE73846BDE8F0810000BC
:102D10006C00002010B5031F4FF080741C601B1F57
:102D200021F001011960191F024B0B601439403862
:102D30000A6010BD852B0008D0E9013201699A6054
:102D4000D0E901235A604A68824201D182684A6010
:102D5000002202610868401E086008687047000091
:102D6000034B036003F15C00086080201060704733
:102D7000EC070020044B036003F15C0008604FF493
:102D80008070106070470000480A002000F10801C0
:102D90004FF0FF32C0E90112C16001610021016002
:102DA000704700210161704730B50B685A1C02D092
:102DB00000F1080202E0026904E022465468256836
:102DC0009D42FAD953684B6099608A6051600861EE
:102DD0000168491C016030BD42684A6093688B609D
:102DE00093685960916008610168491C01607047EF
:102DF000502080F31188BFF34F8FBFF36F8F0A49C4
:102E00004868401C486001280CD10848006810F050
:102E1000FF0F07D0502080F31188BFF34F8FBFF30F
:102E20006F8FFEE7704700008400002004ED00E093
:102E30000849486828B1401E486001D180F31188D4
:102E40007047502080F31188BFF34F8FBFF36F8F0F
:102E5000FEE700008400002070B5002827D0144D44
:102E6000A0F108046168E868014207D1502080F3AE
:102E70001188BFF34F8FBFF36F8FFEE722683AB11F
:102E8000502080F31188BFF34F8FBFF36F8FFEE7A1
:102E90008143616000F074F96068696808446860A3
:102EA0002046FFF705FDBDE8704000F09BBD70BDFA
:102EB0006C0000204FF0E020002101618161054994
:102EC0004FF47A720968B1FBF2F1491E41610721A2
:102ED000016170471400002010B5FDF77DF911491C
:102EE00010280ED300F1E02090F8F0030A78904209
:102EF00007D2502080F31188BFF34F8FBFF36F8F3D
:102F0000FEE709480068896800F4E060884207D954
:102F1000502080F31188BFF34F8FBFF36F8FFEE710
:102F200010BD0000840000200CED00E010B5084B3F
:102F3000002200BF53F832401CB1521C082AF9D3BA
:102F400010BD43F8321003EBC201486010BD000011
:102F5000D001002070B515460E460446FFF748FF25
:102F600094F944100020491C01D184F8440094F9DC
:102F70004510491C01D184F84500FFF759FFA06BAB
:102F800028B92A46314604F1240000F099F8204679
:102F9000BDE87040FFF71CBE10B5020014D00F480A
:102FA000806B38B1502080F31188BFF34F8FBFF38F
:102FB0006F8FFEE700F0E4F800211046FFF79CFA5F
:102FC00000F010FD002807D105494FF0805008603F
:102FD000BFF34F8FBFF36F8F10BD000018000020AC
:102FE00004ED00E070B50546FFF702FF1E4C05B981
:102FF0002568281DFFF7A0FEA86A18B105F1180082
:10300000FFF79AFEE06A401CE0622068854207D123
:10301000291D1648FFF7E0FEE068401CE06007E06D
:103020002069401E20612846FFF771FBFFF750FD25
:10303000FFF7FEFEE069002814D02068854211D118
:10304000A06B38B1502080F31188BFF34F8FBFF3CE
:103050006F8FFEE706494FF080500860BFF34F8F37
:10306000BFF36F8F70BD000018000020AC06002079
:1030700004ED00E002498A6A0260496941607047D4
:103080001800002001490120486270471800002004
:1030900010B50C4650B1094909681831FFF784FE94
:1030A0002046BDE810400121FFF726BA502080F3EA
:1030B0001188BFF34F8FBFF36F8FFEE7180000201A
:1030C00070B514460D4668B10A4909681831FFF712
:1030D00083FE0CB14FF0FF3521462846BDE8704015
:1030E000FFF70ABA502080F31188BFF34F8FBFF368
:1030F0006F8FFEE71800002030B587B000240394DE
:1031000005AA04A903A80494FFF72AFEDDE9030138
:103110000094CDE90110002315A11748059A00F08D
:1031200046FB164D002868631FD000F0BDFC012847
:1031300009D0401C19D1502080F31188BFF34F8F64
:10314000BFF36F8FFEE7502080F31188BFF34F8FDE
:10315000BFF36F8F4FF0FF3028630120E8616C618F
:1031600007B0BDE8304000F045B807B030BD000002
:1031700049444C4500000000912700081800002039
:103180000248816B491C81637047000018000020D1
:10319000164810B5816B11B10121416210BD0021AB
:1031A00041628169124A01E0B9B1491E01EB810314
:1031B00052F82330002BF7D001EB810302EB83029E
:1031C00002F1080453685B685360A34201D15B6855
:1031D0005360DA680260816110BD502080F311886D
:1031E000BFF34F8FBFF36F8FFEE700001800002082
:1031F000100200201CB5264908780190FF200870B5
:1032000008788DF800009DF800009DF8002000F07F
:10321000F000904207D0502080F31188BFF34F8F09
:10322000BFF36F8FFEE79DF800001A4B00F05000CF
:1032300018700720986005E09DF8002052008DF876
:103240000020401E9DF800201206F5D49860032847
:1032500007D0502080F31188BFF34F8FBFF36F8FDB
:10326000FEE74FF440709860019808700A480168C2
:1032700041F470010160016841F070410160FFF7A5
:1032800019FE00205860FCF771FF00201CBD0000F3
:1032900000E400E08400002020ED00E038B5049D4B
:1032A00018B153B1CAB181B120E0502080F3118828
:1032B000BFF34F8FBFF36F8FFEE7502080F311886D
:1032C000BFF34F8FBFF36F8FFEE7502080F311885D
:1032D000BFF34F8FBFF36F8FFEE739B1502080F3FC
:1032E0001188BFF34F8FBFF36F8FFEE750241C464A
:1032F000012384F846302B460094FFF779FA2046E4
:1033000038BD000070B50D46040025D0FFF770FDF4
:10331000D4E90F20216802FB001161600021A16344
:103320002168A1600A46D4E90F01401E00FB01217B
:10333000E16021464FF0FF3001F8440F487004F17E
:1033400010008DB1FFF722FD04F12400FFF71EFDF0
:10335000FFF76EFD012070BD502080F31188BFF390
:103360004F8FBFF36F8FFEE721690029F0D000F087
:1033700001FB0028ECD004494FF080500860BFF3F7
:103380004F8FBFF36F8FE3E704ED00E02DE9FF47B8
:1033900082B01D468A464FF00008040003D0BAF1FF
:1033A000000F08D011E0502080F31188BFF34F8F39
:1033B000BFF36F8FFEE7206C38B1502080F3118887
:1033C000BFF34F8FBFF36F8FFEE7022D0AD1E06B83
:1033D000012807D0502080F31188BFF34F8FBFF32F
:1033E0006F8FFEE700F00EFA3F4F4FF000094FF0ED
:1033F000805648B9049838B1502080F31188BFF343
:103400004F8FBFF36F8FFEE7FFF7F2FCA06BE16B0E
:10341000884207D3022D05D00498D0B1B8F1000F2F
:103420001AD01EE02A4651462046FFF73AF9616A53
:1034300019B104F1240000F09DFA20B13E60BFF301
:103440004F8FBFF36F8FFFF7F3FC012006B0BDE88D
:10345000F087FFF7EDFC22E06846FFF70BFE4FF028
:103460000108FFF7E5FCFFF78BFEFFF7C1FC94F9BD
:103470004400401C01D184F8449094F94500401C5C
:1034800001D184F84590FFF7D3FC04A9684600F009
:1034900027F930B12046FFF79BFB00F0A3FA00208C
:1034A000D4E7FFF7A5FCA06BE16B884213D1FFF7CF
:1034B000BFFC04F110000499FFF7EAFD2046FFF776
:1034C00087FB00F08FFA00289ED13E60BFF34F8F3C
:1034D000BFF36F8F98E7FFF7ABFC2046FFF778FB51
:1034E00000F080FA90E7000004ED00E02DE9F047DD
:1034F0001F4690468946040003D0B9F1000F08D05A
:1035000011E0502080F31188BFF34F8FBFF36F8F0E
:10351000FEE7206C38B1502080F31188BFF34F8F45
:10352000BFF36F8FFEE7022F0AD1E06B012807D0AF
:10353000502080F31188BFF34F8FBFF36F8FFEE7EA
:10354000FFF7CAFC5020EFF3118680F31188BFF318
:103550004F8FBFF36F8FA06BE16B884206D3022FB2
:1035600004D0002086F31188BDE8F08794F9455017
:103570003A4649462046FFF794F8681C04D06D1C73
:1035800084F845500120EDE7606A0028FAD004F184
:10359000240000F0EFF90028F4D0B8F1000FF1D0CA
:1035A0000121C8F80010EDE72DE9F747002683B0A8
:1035B0008A46040003D0BAF1000F08D011E0502071
:1035C00080F31188BFF34F8FBFF36F8FFEE7206C3E
:1035D00038B1502080F31188BFF34F8FBFF36F8F46
:1035E000FEE700F00FF9DFF8F4804FF000094FF02C
:1035F000805748B9059838B1502080F31188BFF33F
:103600004F8FBFF36F8FFEE7FFF7F2FBA56BC5B1DE
:1036100051462046FFF732F86D1EA563206950B170
:1036200004F1100000F0A6F928B1C8F80070BFF34B
:103630004F8FBFF36F8FFFF7FBFB012006B0BDE894
:10364000F087059808B11EB106E0FFF7F1FB27E00F
:103650006846FFF70FFD0126FFF7EAFBFFF790FD35
:10366000FFF7C6FB94F94400401C01D184F8449054
:1036700094F94500401C01D184F84590FFF7D8FB30
:1036800005A9684600F02CF8002820460AD0FFF76C
:103690009FFA00F0A7F92046FFF74CF90028B3D0B5
:1036A0000020CBE7FFF746F990B104F1240005991B
:1036B000FFF7EEFC2046FFF78BFA00F093F90028A5
:1036C000A2D1C8F80070BFF34F8FBFF36F8F9BE795
:1036D0002046FFF77DFA00F085F995E704ED00E05C
:1036E0002DE9F0410C46050011D0C4B1FFF780FB75
:1036F000174B5A696E682068911B471C17D02F68BA
:103700009B6A9F4219D0964217D8012410E050209E
:1037100080F31188BFF34F8FBFF36F8FFEE7502008
:1037200080F31188BFF34F8FBFF36F8FFEE7002444
:10373000FFF77EFB2046BDE8F081884205D9401A9C
:1037400020602846FFF796FCF1E700202060DCE7C8
:10375000180000202DE9FF5F8346DDE90E879946BA
:1037600016468A469000FFF769FA05001CD05C20D7
:10377000FFF764FA040014D00020256384F8590090
:10378000CDE90240CDE900874B46324651465846C6
:10379000FFF73FF82046FEF7DDFE012004B0BDE84C
:1037A000F09F2846FFF758FB4FF0FF30F6E7F0B5E3
:1037B00085B0DDE90B640A9DA6B1DCB15C270097FA
:1037C0002663022684F85960002604AFCDE902463C
:1037D000CDE90057FFF71DF82046FEF7BBFE049821
:1037E00005B0F0BD502080F31188BFF34F8FBFF3B9
:1037F0006F8FFEE7502080F31188BFF34F8FBFF328
:103800006F8FFEE70548C16919B1806B18B10020C0
:103810007047012070470220704700001800002008
:103820000148406970470000180000202DE9F04170
:103830002E4C0027A06B40B1206A401C2062606AB9
:1038400000B101273846BDE8F0816669761C6661E3
:1038500013D16068006838B1502080F31188BFF33D
:103860004F8FBFF36F8FFEE76068A1686160A06053
:10387000A06A401CA062FFF72BF9206BDFF8708074
:10388000864209D36068006880B16068C068C56816
:10389000686886420DD220632068C06A00EB800110
:1038A00058F821000128CAD90127C8E74FF0FF3096
:1038B000F1E7281DFFF740FAA86A18B105F11800D2
:1038C000FFF73AFAE86AA169884200D9A06100EBE3
:1038D000800108EB8100291DFFF77EFAE86A216864
:1038E000C96A8842CED30127CCE700001800002027
:1038F0001002002070B504004FF0000133D01B4DC2
:103900002868844207D0502080F31188BFF34F8F7E
:10391000BFF36F8FFEE7206D38B1401E2065E36C6A
:10392000E26A9A421FD040B11DE0502080F3118816
:10393000BFF34F8FBFF36F8FFEE7201DFFF7FCF93A
:10394000E06CE062C0F13800A061E06AA9698842D9
:1039500000D9A861064900EB800001EB8000211D21
:10396000FFF73AFA0121084670BD00001800002058
:103970001002002070B5C068C46854B104F118008A
:103980000646FFF7D9F9144DA86B50B131461348DC
:1039900015E0502080F31188BFF34F8FBFF36F8F76
:1039A000FEE7201DFFF7C8F9E06AA969884200D93F
:1039B000A8610B4900EB800001EB8000211DFFF79F
:1039C0000BFAE06A2968C96A884202D90120686254
:1039D00070BD002070BD0000180000209806002077
:1039E000100200202DE9F0472C4D00242746A86B3B
:1039F00038B1FFF7FDF9A86B401EA863A86B40B172
:103A000046E0502080F31188BFF34F8FBFF36F8FD4
:103A1000FEE72969224E0120D1B3A6F591698046BF
:103A20003068E0B1F068C46804F11800FFF784F969
:103A3000201DFFF781F9E06AA969884200D9A861D1
:103A400000EB800109EB8100211DFFF7C5F9E06A59
:103A50002968C96A8842E3D3C5F82480E0E70CB13D
:103A6000FFF736F82C6A4CB14FEA0806FFF7DEFE86
:103A700000B16E62641EF9D100202862686A38B114
:103A80000849012738070860BFF34F8FBFF36F8FD6
:103A9000FFF7CEF93846BDE8F08700001800002097
:103AA0009806002004ED00E010B586B0FEF7BAFDE0
:103AB000114CA068B8B100200390049005AA04A995
:103AC00003A8FFF757F9DDE9032102208DE807007D
:103AD00000230AA10B48059AFFF769FEE06010B1C8
:103AE00006B0012010BD502080F31188BFF34F8F26
:103AF000BFF36F8FFEE7000054000020546D72206A
:103B000053766300AD2B00082DE9FF411E46134696
:103B100002000A9D4FF0000016D0144CA768002F39
:103B20000FD0CDE900130292062917DAFFF76AFEDB
:103B300002284FF000030FD000226946A068FFF76B
:103B400025FC04B0BDE8F081502080F31188BFF35C
:103B50004F8FBFF36F8FFEE72A46EEE70023324612
:103B600069463846FFF7C2FCEBE70000540000202E
:103B7000C03B000800000000000000000000000042
:103B8000000000000002000018000000000000001B
:103B900000000000010202030405060708090A0BE1
:103BA0000C0D0E0F101000000000000000000102BC
:103BB00003040607080900000000010203040000D6
:103BC00064656661756C745461736B00EC3B00084E
:103BD000000000209400000044200008803C000801
:103BE00094000020141E0000542000080000000073
:103BF00000000000010000001000000000000000B4
:103C00000024F4000000000000000000000000009C
:103C100000000000000000000000000000000000A4
:103C20000000000000000000000000000000000094
:103C30000000000000000000000000000000000084
:103C40000000000000000000000000000000000074
:103C50000000000000000000000000000000000064
:103C60000000000000000000000000000000000054
:103C700000000000AAAAAAAA00000000000000009C
:0400000508000131BD
:00000001FF
