:020000040800F2
:10000000281F0020E1010008732A000827230008A8
:10001000712A0008310400080138000800000000BF
:10002000000000000000000000000000490100087E
:1000300033040008000000008D0100083D34000872
:10004000FB010008FB010008FB010008FB010008A0
:10005000FB010008FB010008FB010008FB01000890
:10006000FB010008FB010008FB010008FB01000880
:10007000FB010008FB010008FB010008FB01000870
:10008000FB010008FB010008FB010008FB01000860
:10009000FB010008FB010008FB010008FB01000850
:1000A000FB010008FB010008FB010008FB01000840
:1000B000FB010008FB010008FB010008FB01000830
:1000C000FB010008FB010008FB010008FB01000820
:1000D000FB010008E5370008FB010008FB010008F0
:1000E000FB010008FB010008FB010008FB01000800
:1000F000FB010008FB010008FB010008FB010008F0
:10010000FB010008FB010008FB010008FB010008DF
:10011000FB010008FB010008C5340008FB010008D2
:10012000FB010008FB010008FB010008FB010008BF
:10013000DFF810D000F0CCF8004800473D3B000845
:10014000AFF30080281F0020224B19680868B0E830
:10015000F00F80F30988BFF36F8F4FF0000080F33A
:1001600011884EF00D0E7047000000000648006830
:10017000006880F3088862B661B6BFF34F8FBFF3A3
:100180006F8F00DF00BF00BF08ED00E0EFF30980D4
:10019000BFF36F8F0F4B1A6820E9F00F106008B59E
:1001A0004FF0500080F31188BFF34F8FBFF36F8F74
:1001B00004F0F2FB4FF0000080F31188BDE8084026
:1001C00019680868B0E8F00F80F30988BFF36F8FF3
:1001D000704700BF14000020EFF305807047000057
:1001E0000648804706480047FEE7FEE7FEE7FEE7D1
:1001F000FEE7FEE7FEE7FEE7FEE7FEE7C3340008A2
:1002000031010008202A04DB203A21FA02F0002103
:10021000704721FA02F3D040C2F120029140084316
:100220001946704740EA01039B0703D009E008C95B
:10023000121F08C0042AFAD203E011F8013B00F8AB
:10024000013B521EF9D27047D2B201E000F8012BF7
:10025000491EFBD270470022F6E710B513460A4646
:1002600004461946FFF7F0FF204610BD2DE9F05F68
:100270000546002092469B46884606468146402415
:100280001BE02846414647462246FFF7BBFF534640
:100290005A46C01A914110D311461846224600F022
:1002A00029F82D1A67EB01084F462246012000214C
:1002B00000F020F817EB00094E41201EA4F10104C4
:1002C000DFDC484631462A464346BDE8F09F000041
:1002D000064C074D06E0E06840F0010394E8070093
:1002E00098471034AC42F6D3FFF726FFD4530008EA
:1002F000F4530008202A04DB203A00FA02F100201F
:1003000070479140C2F1200320FA03F31943904053
:100310007047000001A003F075BA00004572726FCB
:10032000725F48616E646C657200000008B5002061
:100330008DF8000001226946154801F097FF02F090
:100340009BFB02F04FF8B0B112A003F05BFA00F093
:1003500071F800BF02F0CAFF88B114A003F052FA8E
:1003600000F068F802F0CAFB68B116A003F04AFA80
:1003700000F060F808BD19A003F044FAEAE71DA0F8
:1003800003F040FAEEE721A003F03CFA08BD0000BC
:10039000C0010020454550524F4D20436865636BB6
:1003A000204661696C65640D0A000000464C4153AB
:1003B0004820436865636B204661696C65640D0A7B
:1003C0000000000053444361726420436865636B1E
:1003D000204661696C65640D0A0000004545505275
:1003E0004F4D20436865636B20537563636573737A
:1003F0000D0A0000464C41534820436865636B205A
:10040000537563636573730D0A00000053444361C1
:10041000726420436865636B20537563636573730F
:100420000D0A00004FF47A74204600F0C3F8FBE791
:10043000FEE7704772B6FFF76DFFFEE710B590F864
:1004400021100022022905D00421816380F8202098
:10045000012010BD01680B6823F00E030B600168DA
:100460000B6823F001030B6090F84030C46B01214E
:1004700001FA03F3636080F8211080F82020104611
:1004800010BD00002DE9F05F90F821100024022932
:1004900003D004218163012485E001680A6822F009
:1004A0000E020A6001680A6822F001020A603F4EEB
:1004B0003E4FB215DFF8F4C0DFF8F090DFF8ECA0A3
:1004C000DFF8E8B0DFF8E4E00168783F13011502D7
:1004D000ACF1640CA9F15009AAF13C0AABF1280B6C
:1004E000AEF1140E4FF48018B14227D9B9420ED0A4
:1004F000614512D049451DD0514518D0594518D0F5
:10050000714501D1424615E0294EB14201D1012287
:1005100010E0274E1436B14201D110220AE0244ED9
:100520002836B14206D0224A3C32914201D11A46C5
:1005300000E02A461E49091F0A602BE0B94213D089
:10054000614517D0494522D051451DD059451DD090
:10055000714501D142461AE0B14202D14FF080729A
:1005600015E0134EB14201D1012210E0104E1436B5
:10057000B14201D110220AE00D4E2836B14206D018
:100580000B4A3C32914201D11A4600E02A46074903
:1005900080394A60012180F82110002180F8201064
:1005A000416B01B188472046BDE8F09F80000240C2
:1005B0000804024070B5044600F018F90546601CB6
:1005C00002D004480078044400F010F9401BA04217
:1005D000FAD370BD040000202DE9F84FDFF8C89170
:1005E0000024A9F1040B23460F2709F1040AABF1FB
:1005F000040ED1E00125A54006EA0502AA4276D103
:10060000DFF8A8C14E68A6EB0C0866452BD00DDCC0
:10061000032E34D005DC36B3012E19D0022E2FD193
:100620001BE0112E16D0122E2AD119E0B8F5881F22
:1006300019D006DCB8F5803F15D0B8F5801F1FD162
:1006400011E0B8F5001F0ED0B8F5041F18D10AE06C
:10065000CB6815E0CB681B1D12E0CB6808330FE0B8
:10066000CB680C330CE08B682BB1012B4FF00803E7
:1006700003D0456104E0042302E0056100E00023AB
:10068000FF2A01D8064601E000F104064FEA84057E
:1006900001D9A5F12005D6F8008007FA05FC28EA63
:1006A0000C0803FA05F548EA0508C6F800804D680D
:1006B000ED0070D53E4DAE6946F00106AE61AD6904
:1006C00024F0030605F0010500953A4D06EB050CF4
:1006D000DCF80850A607360F07FA06F825EA0805E1
:1006E000DFF8D480404503D14FF0000825E052E008
:1006F000DFF8C880404502D14FF001081DE0DFF867
:10070000C080404502D14FF0020816E0DFF8B48007
:10071000404502D14FF003080FE0DFF8AC804045C0
:1007200002D14FF0040808E0DFF8A080404502D174
:100730004FF0050801E04FF0060808FA06F848EA0D
:100740000508CCF808804D68D9F80060ED024D46E8
:1007500001D5164300E096432E604D68DAF800603C
:10076000AD02554601D5164300E096432E604D6814
:10077000DBF80060AD035D4601D5164300E096430B
:100780002E604D68DEF80060ED03754601D5164316
:1007900000E096432E60641C0A681646E2407FF42F
:1007A00029AFBDE8F88F00000804014000001110D7
:1007B000001002400000014000080140000C014010
:1007C000001001400014014000180140001C0140CD
:1007D000C26821EA02030A4043EA0241016170470C
:1007E0000AB1016170470904FBE700000148806815
:1007F000704700000400002090F83D0070470000A2
:1008000070B5040025D094F83D00002520B984F887
:100810003C50204600F02EFB242084F83D00206848
:10082000016821F0010101602068016841F4004184
:1008300001602068016821F40041016000F0CEFCF5
:100840004D4A6168914201D84C4900E04C498842C8
:1008500001D2012070BD4B492368B0FBF1F15E6805
:1008600026F03F060E435E606368934206D94FF45C
:10087000967359434FF47A73B1FBF3F12368491C23
:100880001E6A26F03F06314319626168914210D812
:100890004900401EB0FBF1F2521CC2F30B02042AC5
:1008A00001D2042022E0B0FBF1F0401CC0F30B00A9
:1008B0001CE0A268F2B301EBC10303EB0116431E77
:1008C000B3FBF6F35B1C43F480431B0549D092B3A2
:1008D00001EBC10202EB0111401EB0FBF1F0401C24
:1008E000C0F30B0040F4804040F400402168CA6926
:1008F0004CF6FF739A431043C861D4E907100143D3
:100900002068026822F0C00211430160D4E90301AB
:1009100001432068826848F2FF339A4311438160A3
:10092000D4E9050108432168CA6822F0FF02104398
:10093000C86001E00EE016E02068016841F00101A6
:1009400001602564202084F83D00256384F83E5032
:10095000002070BD01EB4106431EB3FBF6F35B1CA8
:10096000B3E70120C2E701EB4101401EB0FBF1F00B
:10097000401CC0F30B00B7E7A086010080841E0076
:1009800000093D0040420F002DE9FF4F81B089462C
:100990000446FFF72BFF054694F83D004FF0000892
:1009A00020287DD11923012250492046009501F0CD
:1009B0004DFE002874D194F83C00012870D001202D
:1009C00084F83C0020680168C90703D1016841F040
:1009D000010101602068016821F4006101602420A8
:1009E00084F83D00002626644148E0624FF0011B78
:1009F00020272068016841F4807101600095002281
:100A000059462046049B01F021FE50B12068006841
:100A1000C00502D54FF400702064032005B0BDE886
:100A2000F08F216809F0FE000861FFF7DFFE216802
:100A3000054648694969C0F34000C1F380214FF081
:100A4000A00A0FE0FFF7D2FE411B0498814200D8B4
:100A500008B984F83DA0216848694969C0F340009D
:100A6000C1F3802194F83D20A02A02D008B90029C2
:100A7000E8D084F83D7020684169C943890716D4DD
:100A8000016841F40071016020684169806919239F
:100A9000012216492046009501F0D8FDB8B900E0C2
:100AA00021E084F83D7084F83C600020B6E70168DE
:100AB00041F40071016021686FF48060486119237E
:100AC00001220A492046009501F0C0FD08B101202D
:100AD000A4E7039808F1010880458AD384F83D70A3
:100AE00084F83C60F3E7022098E700000200100061
:100AF0000000FFFF2DE9FF4F83B00025DDE91079ED
:100B00009A4693460446DDF848800095FFF76EFE4E
:100B1000064694F83D0020287CD1192301228549FE
:100B20002046009601F092FD0028F5D194F83C0093
:100B300001286FD0012084F83C0020680168C907B3
:100B400003D1016841F0010101602068016821F4CE
:100B500000610160222084F83D00402084F83E00BE
:100B600025646762A4F82A90608D20857248E0624F
:100B7000CDE9008653465A462046049901F068FCA8
:100B800000287DD1208DDFF8B491202768B101289D
:100B900014D00228206801681ED041F480610160F1
:100BA0002068416980690090B6E0206841698169E8
:100BB0000091016841F400710160ADE020680168B6
:100BC00021F48061016072B62068416981690091F9
:100BD000016841F400710AE041F40061016072B6FD
:100BE0002068416981690091016821F48061016098
:100BF00062B691E0032868D801280CD00228434649
:100C00004FF000024946204600960FD001F01EFD2D
:100C1000B0BB10E08BE032464146204601F0BCFDFF
:100C200070BB20680069616A08706CE001F00EFD1D
:100C300030BB72B634E02068016821F48061016045
:100C400072B620680069616A0870606A401C606260
:100C5000208D401E2085608D401E6085384846F2FC
:100C6000A8110068B0FBF1F0C0EBC00000EB800001
:100C70000090401E009008D020684069C04300E00A
:100C800029E040070CD50098F3E744F8305F67731C
:100C9000A573206940F02000206162B625731AE038
:100CA0002068016841F40071016020680069616A90
:100CB0000870606A401C6062218D491E2185618D2B
:100CC000491E618562B621681BE0324641462046D6
:100CD00001F062FD18B1012007B0BDE8F08F206877
:100CE0000069616A0870606A401C6062218D491E5B
:100CF0002185618D491E618521684A69D243520769
:100D00000AD409690170606A401C6062208D401E2F
:100D10002085608D401E6085208D00287FF46AAF9D
:100D200084F83D7084F83E5084F83C50D4E70220AB
:100D3000D2E70000020010000000FFFF04000100E5
:100D4000100000202DE9FF4F83B09A46DDE911978E
:100D500093460446DDF84080FFF748FD054694F8C9
:100D60003D0020287FD119230122404920460095CB
:100D700001F06CFC002876D194F83C00012872D078
:100D8000012084F83C0020680168C90703D101688C
:100D900041F0010101602068016821F400610160F7
:100DA000212084F83D00402084F83E00002626647F
:100DB000C4F82480A4F82A90608D20852C48E06235
:100DC000CDE9007553465A462046049901F0BEFB12
:100DD00070B930E02A463946204601F015FD58B179
:100DE000206C042804D12068016841F4007101607E
:100DF000012007B0BDE8F08F606A216800780861C3
:100E0000606A401C6062218D491E89B22185628D15
:100E1000521E628522685369DB435B070BD469B1BC
:100E200000781061606A401C6062208D401E208541
:100E3000608D401E6085208D0028CBD12A46394622
:100E4000204601F0D7FB0028CAD154F83D0B0168B9
:100E500041F400710160202004F81E09E6776677EE
:100E60000020C6E7FFE70220C3E7000002001000F1
:100E70000000FFFF10B586B00021009101910291A2
:100E8000039100680F4988421AD10F4CA06940F0C5
:100E90000800A061A069694600F008000490C02025
:100EA000009012200190032003900848FFF794FB64
:100EB000E06940F40010E061E06900F40010049083
:100EC00006B010BD0054004000100240000C01406C
:100ED0000248816802781144816070470400002054
:100EE000074810B5016841F010010160032000F0CF
:100EF000A5F80F2000F006F800F050F8002010BD13
:100F00000020024030B505461F4887B0C16941F056
:100F10001001C161C06906A900F01000009001A88D
:100F200000F03CF90498B0B100F058F940001749BE
:100F3000174AB0FBF1F11748491E0260416040F2C8
:100F4000E7320021C0E903218160816100F0BDFE2C
:100F5000040003D015E000F041F9E8E70D4800F087
:100F6000E3FE04000DD1362000F03AF8102D07D230
:100F700000222946362000F041F80748056000E0CD
:100F8000012407B0204630BD0010024040420F004F
:100F90000010004008020020080000200E4808B59C
:100FA000816941F001018161816901F001010091D4
:100FB000C16941F08051C161C069002200F08050D8
:100FC00000900F21901E00F019F80448416821F0AC
:100FD000E061416008BD00000010024000000140D7
:100FE000002809DB00F01F02012191404009800028
:100FF00000F1E020C0F8001170470000F0B40E4B83
:101000001B680C46C3F30223C3F10705042D00D966
:101010000425191D072901D2002300E0DB1E01264B
:1010200006FA05F1491E214099409E40761E164061
:101030003143F0BC02F0F6BB0CED00E0064900F0D5
:10104000070208684FF6FF03184040EA0220034AEF
:1010500010430860704700000CED00E00000FA0546
:10106000704700002DE9F0470F46050061D0434E60
:10107000306800F00700B84209D2306820F007005D
:1010800038433060306800F00700B84251D128681A
:101090003B4C810712D5400703D5606840F4E060FF
:1010A00060602878000703D5606840F46050606095
:1010B0006068A96820F0F000084360602878C007E5
:1010C00028D06868012810D02168022810D089072C
:1010D00000292EDA616821F0030101436160FFF706
:1010E00085FB804641F288390DE021688903EFE7EE
:1010F0008901EDE7FFF77AFBA0EB0801494502D92A
:101100000320BDE8F0876068696800F00C00B0EB70
:10111000810FEFD1306800F00700B8420BD930687A
:1011200020F0070038433060306800F00700B84214
:1011300001D00120E5E72878400705D56068E96817
:1011400020F4E060084360602878000706D56068F6
:10115000296920F4605040EAC100606000F05EF848
:101160006168084AC1F30311515CC8400649086030
:1011700006480068FFF7C6FE0020C2E700200240D4
:1011800000100240AE5300081000002008000020AC
:1011900001490120C8647047000042420F220260EA
:1011A0000C4A536803F003034360536803F0F003F1
:1011B0008360536803F4E063C36052684FF4E063F4
:1011C00003EAD20202610448006800F007000860E8
:1011D000704700000010024000200240044805490A
:1011E00000684968044AC1F30221515CC840704755
:1011F0001000002000100240BE53000804480549BA
:1012000000684968044AC1F3C221515CC840704774
:101210001000002000100240BE5300080E4A516822
:101220000E4801F00C03042B11D0082B0FD10C48F1
:10123000C1F38343C903C05C0AD55168084AC1F3AE
:101240004041921E515C054A5043B0FBF1F070479B
:1012500004494843704700000010024000127A0021
:101260009E53000800093D0010B5044CA06800061C
:1012700003D5FFF7F5FE8020A07210BD00100240DC
:101280002DE9F84F040070D02078C04DC00749D038
:101290006868C0F38100012807D06868C0F3810046
:1012A000022809D16868C00306D52868800339D5AB
:1012B00060680028E7D035E06068B0F5803F0BD06B
:1012C00010B1B0F5A02F11D0286820F4803028602C
:1012D000286820F4802002E0286840F480302860EC
:1012E000606890B1FFF782FA06460AE0286840F489
:1012F00080202860F0E700BFFFF778FA801B6428A1
:1013000073D828688003F7D50CE0FFF76FFA06461C
:1013100005E000BFFFF76AFA801B6428F0D8286850
:101320008003F7D420789A4E80074FF001094FF0E0
:10133000000839D5686810F00C0F07D06868C0F352
:101340008100022809D16868C00306D42868800794
:1013500014D52069012808D110E02069B0B1C6F881
:101360000090FFF743FA074605E00AE1FFF73EFA6F
:10137000C01B0228C4D828688007F7D5286861698F
:1013800020F0F80040EAC10028600DE0C6F80080B7
:10139000FFF72CFA074604E0FFF728FAC01B0228E3
:1013A00023D828688007F7D4207800072CD57948FF
:1013B000A169D9B1C0F80090FFF718FA074604E018
:1013C000FFF714FAC01B02280FD8686A8007F7D508
:1013D00071484FF4FA510068B0FBF1F0009000BF83
:1013E0000098411E0091FAD20EE080E0C0F8008023
:1013F000FFF7FCF9074604E0FFF7F8F9C01B0228E5
:1014000075D8686A8007F7D42078400760D5E86906
:101410000027C00008D4E86940F08050E861E8691E
:10142000012700F0805000905C480168C90513D482
:101430000168834641F480710160FFF7D7F9824665
:1014400006E000BFFFF7D2F9A0EB0A0064284ED8EF
:10145000DBF80000C005F5D5E06801280AD008B126
:10146000052813D0286A20F001002862286A20F09D
:10147000040002E0286A40F001002862E06841F2BE
:10148000883B98B1FFF7B2F982460BE0286A40F03A
:1014900004002862EEE700BFFFF7A8F9A0EB0A01FD
:1014A00059455AD8286A8007F6D50CE0FFF79EF90F
:1014B000824605E0FFF79AF9A0EB0A0159454CD89E
:1014C000286A8007F6D41FB1E86920F08050E861EF
:1014D000E06988B36968C1F38101022944D0022818
:1014E000C6F8608004D0FFF781F9044638E034E0A4
:1014F000FFF77CF9074604E0FFF778F9C01B0228E4
:101500002BD828688001F7D4206AB0F5803F05D138
:101510006868A16820F4003008436860D4E90801D5
:101520000843696821F4741108436860C6F8609044
:10153000FFF75CF9044606E025E000BFFFF756F927
:10154000001B022809D828688001F7D51BE000BFDE
:10155000FFF74CF9001B022802D90320BDE8F88FE1
:1015600028688001F4D40EE00128F7D06868226A68
:1015700000F48031914204D1616A00F47010884215
:1015800001D00120EAE70020E8E700000010024057
:1015900000004242800442421000002000700040DF
:1015A0002DE9FE430446002603200D4684F834004E
:1015B000606C03285ED0B5F5805F5BD04FF40067A8
:1015C00000204FF08068BD421FD1814600900190FD
:1015D0000021206801F076FA800113D46946204684
:1015E00001F036FD07000DD10198400334D5B4F861
:1015F00050000104206801F0ADFA070002D1022179
:10160000206823E0A06B384328E01DB1A06B40F0B8
:10161000006023E08146009001900021206801F0E5
:1016200051FA8001EED46946204601F011FD070011
:10163000E8D10198C0030FD5B4F850000104206828
:1016400001F088FA0700DDD10021206801F0CFFA0F
:101650000700D7D14F46D5E74746D3E7A063A06B35
:10166000144F4FF0010848B12068876384F8348034
:1016700001260EE0A06B40F08050EFE7211DD4E979
:10168000050C0EC9CDE90050CDF808C0206801F066
:101690001CFA4FF40071206801F090FA28B121681B
:1016A0008F63A16B0143A163012684F83480304627
:1016B000BDE8FE83FF054000F0B5426E920F0A7050
:1016C000426EC2F383624A70426EC2F301628A7054
:1016D000426E120CCA70B0F86420120A0A7190F8B7
:1016E00064204A71826E120DCA80826EC2F3034278
:1016F0000A72B0F86820C2F3C0324A72B0F86820AB
:10170000C2F380328A72B0F86820C2F34032CA72E3
:10171000B0F86820C2F300320A7300264E73426CA0
:101720004FF40075012462B1012A3AD0026847499A
:101730009163816B41F08051816380F834400120D6
:10174000F0BDB0F86820C36E9205120D42EA9372A4
:101750000A61C26EC2F3C2620A75C26EC2F302624D
:101760004A75C26EC2F342528A75C26EC2F3824299
:10177000CA75C26EC2F3C2320A760A69521C426549
:101780000B7E03F007039B1C9A4042650B7A03F023
:101790000F0704FA07F383655B0A5A43C0E917256C
:1017A0000EE090F86820C36E9206920A42EA134255
:1017B0000A610A69521C92024265C0E91652056626
:1017C00030F86C2FC2F3803201F8192F0288C2F36F
:1017D000C6124A70027802F07F028A704268D20F05
:1017E000CA704268C2F341720A714268C2F38262EF
:1017F0004A714268C2F383528A714268C2F340520E
:10180000CA710E724268C2F300424A728288C2F301
:10181000C0328A728288C2F38032CA728288C2F36E
:1018200040320A738288C2F300324A738288C2F35C
:1018300081228A738288C2F30122CA730079C0F3BD
:10184000460008744C740020F0BD0000FF05400005
:1018500070B50446B0F8500000250104206801F07E
:101860007CFA18B1A16B0143A16304E00021206858
:1018700001F028F90546C5F3432070BD70B504009A
:101880000ED094F83400002518B92577204600F0D2
:101890004FF8032084F83400204600F00BF808B11C
:1018A000012070BDA5632563012084F83400002069
:1018B00070BD0000FEB50025044676200095CDE9F8
:1018C000015029460B460A46206801F0FEF848BB45
:1018D000154E46F8A05F206801F009F90125356032
:1018E0000220FEF767FE204601F096FC30B100BFF3
:1018F00084F83450A16B0143A16313E0204601F04A
:1019000014FC0028F4D14FF40071206801F056F95E
:10191000002808D0226805499163A16B0143A163A7
:1019200084F834500120FEBD00003042FF05400025
:1019300030B585B0002100910191029103910068BA
:10194000184988422BD11848416941F480614161AE
:10195000416901F480610491816941F01001816164
:10196000816901F010010491816941F020018161D8
:101970008069022400F0200004904FF4F850CDE973
:1019800000040325694603950848FEF725FE042058
:10199000CDE90004694603950548FEF71DFE05B034
:1019A00030BD0000008001400010024000100140E6
:1019B0000014014070B5040009D0606A002540B1F0
:1019C00025616561A56294F8510040B10CE00120E9
:1019D00070BD6068B0F5827FF4D0E561F2E784F80D
:1019E0005050204600F040F8022084F85100206852
:1019F000016821F040010160A088218900F4827013
:101A000001F404410843A18901F400610843217CE9
:101A100001F002010843217D01F001010843218BFF
:101A200001F400710843217F01F03801084394F864
:101A3000201001F080010843218D01F4005108437A
:101A400021680860A069042101EA1040216848600B
:101A50002068C16921F40061C1616565012084F8D5
:101A60005100002070BD000030B585B00024009406
:101A700001940294039400681449884223D11448C5
:101A8000816941F480518161816901F4805104913F
:101A9000816941F00401816180690E4D00F004000C
:101AA0000490A0200090022001900320039069463A
:101AB0002846FEF791FD4020CDE9000469462846FE
:101AC0000294FEF789FD05B030BD000000300140F2
:101AD00000100240000801402DE9FF4F81B004468C
:101AE00090F8500000260E9F1D4693464FF00109C6
:101AF00001280FD04FF0010A84F850A0FEF776FEBF
:101B0000804694F85100616801280DD0B1F5827FBC
:101B100008D103E0022005B0BDE8F08FA16809B943
:101B2000042801D00226C9E00298002865D0BBF144
:101B3000000FFBD0002DF9D094F85100042802D0FA
:101B4000052084F8510000206065C4F838B0E587AE
:101B5000A58702992163E586A586206460642068D4
:101B60000168490603D4016841F040010160E06862
:101B7000B0F5006F606803D0F0B3012D47D081E06D
:101B800008B1012D3CD1206B21680088C860206B12
:101B9000801C2063E08E401EE08631E02068816872
:101BA00089070FD5E18E69B1B9F1010F0AD1216B17
:101BB0000988C160206B801C2063E08E401EE08697
:101BC0004FF0000920688168C9070CD0E18F51B13E
:101BD000C068A16B0880A06B801CA063E08F401ED2
:101BE000E0874FF00109FEF701FEA0EB0800B842C4
:101BF00006D3781C04D001E009E05BE003265BE03B
:101C0000E08E0028CAD1E08F0028C7D140E0206BC9
:101C1000216800780873206B401C2063E08E401E12
:101C2000E0862FE02068816889070FD5E18E69B1D1
:101C3000B9F1010F0AD1216B09780173206B401CA7
:101C40002063E08E401EE0864FF000092068816826
:101C5000C9070CD0E18F51B1C068A16B0870A06BAF
:101C6000401CA063E08F401EE0874FF00109FEF7A3
:101C7000BDFDA0EB0800B84202D3781C02D0BAE741
:101C8000002FB8D0E08E0028CCD1E08F0028C9D139
:101C900042463946204601F019FB18B101262020A2
:101CA00060650BE0A06818B92068C1688068009082
:101CB000606D08B1012601E084F851A0002084F88D
:101CC0005000304627E77047704710B5040003D036
:101CD00094F83D0010B107E0012010BD002084F809
:101CE0003C00204600F01EF8022084F83D00211D33
:101CF000206801F0EDFB012084F8460084F83E00E6
:101D000084F83F0084F8400084F8410084F84200E1
:101D100084F8430084F8440084F8450084F83D00CA
:101D2000002010BD7047000090F83D10012901D03F
:101D300001207047022180F83D100168CA6842F016
:101D40000102CA6000680E4988420ED00D498842DF
:101D50000BD0B0F1804F08D00B49884205D00B4919
:101D6000884202D00A49884204D1816801F0070103
:101D7000062903D0016841F001010160002070478D
:101D8000002C0140003401400004004000080040E5
:101D9000000C0040704770B50446006801694FF0C0
:101DA0000005C943890715D4C168C943890711D4FF
:101DB000E91E0161012020772068806980072046A4
:101DC00002D0FFF7E7FF04E000F098F8204600F0AB
:101DD00096F8257720680169C943490717D4C16877
:101DE000C943490713D46FF0040101610220207731
:101DF0002068806910F4407F204602D0FFF7CAFFB8
:101E000004E000F07BF8204600F079F825772068A0
:101E10000169C943090716D4C168C943090712D427
:101E20006FF008010161042020772068C0698007F5
:101E3000204602D0FFF7AEFF04E000F05FF8204636
:101E400000F05DF8257720680169C943C90617D4F9
:101E5000C168C943C90613D46FF01001016108209D
:101E600020772068C06910F4407F204602D0FFF739
:101E700091FF04E000F042F8204600F040F825779A
:101E800020680169C943C90708D1C168C943C907A6
:101E900004D1891E0161204600F032F820680169F2
:101EA000C943090609D4C168C943090605D46FF0BE
:101EB000800101612046FFF706FF20680169C943E0
:101EC000490609D4C168C943490605D46FF04001E9
:101ED0000161204600F01EF820680169C9438906A7
:101EE0000BD4C168C943890607D46FF02001016192
:101EF0002046BDE87040FFF7E7BE70BD70477047F1
:101F000000680349884201D1FEF7E2BF7047000034
:101F1000001000407047704770470000F8B5016836
:101F200004460868CA684B6910F00F0F4FF00005AF
:101F300059D003F0010602F49077374365D0C1070A
:101F400005D0D10503D5616C41F001016164410701
:101F500005D5D90703D0616C41F0020161648107A6
:101F600005D5D90703D0616C41F004016164010714
:101F700007D502F02001314303D0616C41F0080124
:101F80006164616C00293AD0800604D5900602D5C0
:101F9000204601F012FB20684069616CC0F380109C
:101FA000090700D460B3204601F0E0FA20684069D8
:101FB000400621D52068143050E8001F21F0400170
:101FC00040E80012002AF5D1E06BA8B16D494163E9
:101FD000E06BFEF757FA002811D0E06B416B01B0BF
:101FE000BDE8F040084783060FD593060DD520467F
:101FF000BDE8F84001F0E1BA2046FFF78DFFF8BDDB
:102000002046FFF789FF6564F8BD266B2023012E6B
:102010007CD1C6067AD5D60678D50868486800907F
:1020200048694FF00206400640D5E16B08684068F9
:102030000004000CE8D0A28D8242E5D9E0858869D1
:1020400020282DD020680C3050E8001F21F480712A
:1020500040E80012002AF5D12068143050E8001F33
:1020600021F0010140E80012002AF5D12068143067
:1020700050E8001F21F0400140E80012002AF5D18D
:1020800084F84230256320680C3050E8001F21F0AE
:10209000100140E80012002AF5D1E06BFEF7CEF9FE
:1020A0006663A08DE18D401A81B22AE0A08DE18D9A
:1020B000401A81B2E08D0028A6D00029A4D0226861
:1020C0000C3252E8000F20F4907042E80007002F15
:1020D000F5D12068143050E8002F22F0010240E8CA
:1020E0000027002FF5D184F84230256320680C309A
:1020F00050E8002F22F0100240E80023002BF5D119
:1021000066632046FFF707FFF8BDFFE705062BD5FE
:10211000150629D594F841002128F5D1A068B0F51D
:10212000805F01D12069B0B1206A411C2162216821
:1021300000784860E08C401E0004000CE084E3D18D
:102140002068C16821F08001C1602068C16841F049
:102150004001C160D8E7206A0088C0F308004860E9
:10216000206A801C2062E5E74006CDD55006CBD51D
:10217000CA68204622F04002CA6084F8413000F06C
:10218000D1F8C1E75D35000870B5040004D094F8BB
:102190004100002510B106E0012070BD84F84050D8
:1021A000204600F023F8242084F841002068C1680C
:1021B00021F40051C160204601F060FA20680169F5
:1021C00021F4904101612068416921F02A014161B7
:1021D0002068C16841F40051C1606564202084F822
:1021E000410084F842006563002070BD30B585B0C1
:1021F00000240094019402940394006818498842D2
:102200002CD11848816941F480418161816901F4D0
:1022100080410491816941F0040181618069124D1E
:1022200000F0040004904FF4007000900220019030
:102230000320039069462846FEF7CEF92815CDE91C
:102240000004694628460294FEF7C6F900220521DB
:102250002520FEF7D3FE2520FEF7C2FE05B030BDD7
:1022600000380140001002400008014090F8423060
:10227000202B01D00220704721B11AB10023036343
:1022800001F058BA0120704770472DE9F843044621
:1022900090F841001F4616460D46202802D0022025
:1022A000BDE8F8837DB176B100206064212084F818
:1022B0004100FEF79BFAA6848046E684A068B0F54C
:1022C000805F02D003E00120EAE7206910B12E46CA
:1022D00000250EE000260CE08021204601F045FAA2
:1022E000A0B9AEB116F8010B21684860E08C401E21
:1022F000E084E08C43464FF0000200970028EBD1C9
:102300004FF04001204601F030FA30B10320C7E71A
:1023100035F8020BC0F30800E6E7202084F84100FE
:102320000020BDE77047FEE73EB54FF47A758DE8B3
:10233000260002460123A0210648FEF7DBFB04002D
:1023400005D02B46132204A10848FFF79EFF204624
:102350003EBD0000900000204572726F72205265F1
:10236000616420454550524F4D0D0A00C0010020C8
:102370003EB54FF47A758DE8260002460123A02170
:102380001048FEF7DFFC040006D02B4614220EA1F5
:102390001348FFF77AFF13E00A48FEF72DFA2028CA
:1023A000FAD14FF4967564232A46A0210548FEF71A
:1023B000EBFA0328F7D00348FEF71EFA2028FAD1DB
:1023C00020463EBD900000204572726F7220577209
:1023D00069746520454550524F4D0D0A00000000BC
:1023E000C001002038B50DA040F2FF7400680090D5
:1023F000012269462046FFF7BBFF00208DF8000050
:10240000012269462046FFF78FFF9DF80000102843
:1024100001D0012038BD002038BD000010000000B0
:1024200001684A69D24352050FD46FF480624A6151
:10243000002140F8301F202242738173026942F06C
:102440000402026101730120704700207047000000
:102450002DE9F84F0446006889460B9D01689846AF
:10246000174641F4806101602068016841F4807181
:10247000016000954FF0011B0022594620460A9B3F
:1024800000F0E4F84FF4007A40B120680068C0051D
:1024900001D5C4F840A00320BDE8F88F216809F0F9
:1024A000FE0008612B46284920460A9A00F016F9DA
:1024B000F0BB20684169806900902A4620460A994D
:1024C00000F0A2F940B1206C04283AD120680168DC
:1024D00041F40071016034E0FEB2B8F1010F09D09F
:1024E0002168380A08612A4620460A9900F08CF9CA
:1024F0000028E8D1206806612A4620460A9900F0A3
:1025000083F90028DFD12068016841F480710160FF
:1025100000950022594620460A9B00F097F80028B3
:10252000B3D1216809F0FF0040F00100086100E02C
:1025300007E02B46044920460A9A00F0CFF800280D
:10254000AAD00120A8E70000020001002DE9F8430D
:10255000044600680D46DDE908970168984616466E
:1025600041F4807101604B4600224FF0011120467A
:10257000009700F06BF848B120680068C00502D5EC
:102580004FF4007020640320BDE8F883216805F053
:10259000FE0008613B464A461549204600F09EF879
:1025A00088B920684169806900903A4649462046CA
:1025B00000F02AF948B1206C042804D12068016891
:1025C00041F4007101600120DEE7F5B2B8F1010FBE
:1025D00009D02168300A08613A464946204600F091
:1025E00013F90028E7D1206805610020CCE700003E
:1025F0000200010070B516460D4604461EE0204656
:10260000FFF70EFF08B1012070BD681C16D0FEF761
:10261000EDF8801BA84200D885B920684069C04306
:1026200040070BD5002044F8300F20216173A073C0
:10263000216941F0200121612073E4E720684069AD
:10264000C0434007DBD4002070BD00002DE9F047F7
:10265000984617460D460446C1F30746DDF820901C
:102660002AE000BFB8F1FF3F26D0FEF7BFF8A0EB8D
:102670000901414502D8B8F1000F1DD12068012E93
:1026800016D0806925EA00000004000C12D000205A
:10269000B84211D1002044F8300F20216173A0739B
:1026A000216941F02001216120730120BDE8F087FC
:1026B0004069E7E70120EBE72068012E0AD0806936
:1026C00025EA00000004000C06D00020B842C9D062
:1026D0000020EBE74069F3E70120F7E72DE9F04739
:1026E000984616460D4604464FF000094FF0200A62
:1026F000C1F3074723E020684069C043400515D473
:102700002068016841F40071016021686FF4806005
:102710004861C4F8309084F83DA084F83E90216C64
:1027200041F00401216484F83C9021E0701C06D043
:10273000FEF75CF8A0EB0800B04203D816B1012FF9
:102740001FD021E02068012F15D0806925EA000004
:102750000004000C18D000BF44F8309F84F80DA08E
:1027600084F80E90216941F02001216184F80C90D9
:102770000120BDE8F087406925EA00000004000C54
:10278000EAD12068406901E02068806925EA0000FC
:102790000004000CAFD1ECE72DE9F0410025904694
:1027A0000E460446202728E04069C043C0060CD4EA
:1027B00054F8301B6FF01000486144F810596777E7
:1027C000A577206A2062257714E0FEF70FF8A0EBCA
:1027D0000800B04200D886B920684069C04340066E
:1027E0000BD544F8305F6773A573206940F0200073
:1027F000206125730120BDE8F08120684169C9434B
:102800004906D1D40020F6E770B516460D460446B9
:102810001EE02046FFF704FE08B1012070BD681CD1
:1028200016D0FDF7E3FF801BA84200D885B92068C9
:102830004069C04300060BD5002044F8300F20212A
:102840006173A073216941F0200121612073E4E7E5
:1028500020684069C0430006DBD4002070BD000042
:102860001CB5094A0021094801F0F8F90849086037
:1028700000210120CDE900010B46420205A10748D5
:1028800002F06CFB1CBD00007853000829340008DE
:10289000000000206D795461736B0000713B0008EB
:1028A0002DE9F04186B000242B4800940194029455
:1028B0000394816941F010018161816901F0100187
:1028C0000491816941F004018161816901F0040191
:1028D0000491816941F008018161816901F0080179
:1028E0000491816941F02001816180691B4F00F0F2
:1028F00020000122049011463846FDF771FFDFF8F1
:102900006080012223214046FDF76AFF7814CDE95B
:102910000004694638460294FDF75EFE0125032651
:1029200003960095CDE9015469463846FDF754FEFB
:10293000CDE9005469460B480294FDF74DFE232073
:10294000CDE90005CDE9024669464046FDF744FE63
:1029500006B0BDE8F0810000001002400010014008
:10296000000C0140000801400D4810B50B49016002
:102970000C49416000214FF480428160C0E903129C
:1029800041618161C1610162FDF73AFF002803D016
:10299000BDE81040FDF74EBD10BD000000540040E2
:1029A00090000020801A06000E4810B50C49016006
:1029B000002141608160C16001614161022181614A
:1029C000FEF75CFF08B1FDF735FD00210548FEF775
:1029D000E7FD002803D0BDE81040FDF72BBD10BD7A
:1029E00000800140E400002010B5124C1048022184
:1029F00020604FF4827060600020A060C4E9030191
:102A0000012161614902A1610821C4E907106062E6
:102A1000A0620A20E0622046FEF7CCFF08B1FDF775
:102A200009FD2068016841F04001016010BD00000F
:102A300000300140680100200C4810B50A490160CF
:102A40004FF4E1314160002181600C22C160C0E996
:102A500004128161C161FFF797FB002803D0BDE834
:102A60001040FDF7E7BC10BD00380140C001002058
:102A7000FEE7FEF7F9FBFEE710B54FF400610548ED
:102A8000FEF78EFD002803D0BDE81040FDF7D2BC54
:102A900010BD0000E40000200A6842624A688262B9
:102AA000D1E902231A43D1E904310B43C16A1A4325
:102AB00021F0F7011143C16200207047006800F067
:102AC0000300704708444069704770B50DF1100C61
:102AD00011439CE870002343194329434268314362
:102AE00047F6FF639A430A434260002070BD03210A
:102AF000016000207047D0F88000704770B50B4C23
:102B0000254601E06D1E07D30948FEF7D3FE0028D5
:102B1000F8D103E0641E01D2012070BD0448FEF725
:102B200097FE0428F6D1002070BD0000A0860100A9
:102B3000E40000200A688260D1E901231A43D1E948
:102B400003310B43C1681A436FF30B011143C1609A
:102B50000020704710B585B004463720CDE900103D
:102B600040200290002003904FF48060049069465A
:102B70002046FFF7DFFF41F288323721204600F080
:102B80001DF905B010BD000010B504460A4885B017
:102B900001432920CDE9001040200290002003903D
:102BA0004FF48060049069462046FFF7C3FF20463B
:102BB00000F0BCF905B010BD0000108010B585B064
:102BC00004461020CDE90010402002900020039020
:102BD0004FF48060049069462046FFF7ABFF41F256
:102BE00088321021204600F0E9F805B010BD10B57C
:102BF00085B004460620CDE9001040200290002058
:102C000003904FF48060049069462046FFF792FFDE
:102C100041F288320621204600F0D0F805B010BD00
:102C200030B585B000240546009401944FF48060CF
:102C30000294CDE9034069462846FFF77BFF0B4825
:102C40004FF4FA510068B0FBF1F041F2883148438B
:102C5000401E03D24FF0004005B030BD696B09063D
:102C6000F6D5C520A8632046F6E700001000002036
:102C700010B585B004464FF4D5700090082001903F
:102C800040200290002003904FF480600490694639
:102C90002046FFF74FFF204600F0AEF905B010BD0B
:102CA00010B585B004460720CDE9002040200290F1
:102CB000002003904FF48060049069462046FFF79F
:102CC00039FF41F288320721204600F077F805B03D
:102CD00010BD10B585B0044600210220CDE90010DA
:102CE000C020CDE902014FF480600490694620467F
:102CF000FFF720FF204600F0F1F805B010BD10B539
:102D000085B004460920CDE90010C02002900020C3
:102D100003904FF48060049069462046FFF70AFF55
:102D2000204600F0DBF805B010BD10B585B00446B4
:102D300000213320CDE900104020CDE9020100013F
:102D4000049069462046FFF7F5FE41F288323321B0
:102D5000204600F033F805B010BD10B585B004462C
:102D60000D20CDE9001040200290002003904FF488
:102D70008060049069462046FFF7DCFE41F288320D
:102D80000D21204600F01AF805B010BD30B585B011
:102D90000C46054600210320CDE900104020CDE976
:102DA00002010001049069462846FFF7C3FE22464F
:102DB0000321284600F0DCF805B030BD454B10B5C6
:102DC0001B684FF4FA54B3FBF4F353435B1E02D277
:102DD0004FF0004010BD426B12F0450FF6D01205C7
:102DE000F4D4426B520703D504218163084610BD19
:102DF000426BD20702D00121816305E0C5228263C4
:102E00000269D2B28A4201D0012010BD0021FFF731
:102E100059FE3149084201D1002010BD002802DAD4
:102E20004FF0007010BD410001D5402010BD810061
:102E300001D5802010BDC10002D54FF4807010BDB7
:102E4000010102D54FF4007010BD410102D54FF4CD
:102E5000806010BDC10102D54FF4006010BD0102B9
:102E600002D54FF4805010BD410202D54FF40050FE
:102E700010BD810202D54FF4804010BDC10202D5C1
:102E80004FF4004010BD410302D54FF4003010BD97
:102E9000810302D54FF4802010BDC10302D54FF449
:102EA000002010BD010402D54FF4801010BD410474
:102EB00002D54FF4001010BD810402D54FF48000FC
:102EC00010BD000702D54FF4000010BD4FF4803054
:102ED00010BD00001000002008E0FFFD12494FF473
:102EE000FA520968B1FBF2F141F288325143491EAE
:102EF00002D24FF000407047426B12F0450FF6D0FF
:102F00001205F4D4416B490703D5042181630846B7
:102F10007047416BC90703D00121816308467047A0
:102F2000C521816300207047100000200F494FF435
:102F3000FA520968B1FBF2F141F288325143491E5D
:102F400002D24FF000407047426B12F0450FF6D0AE
:102F50001205F4D4416B490703D504218163084667
:102F60007047C521816300207047000010000020D9
:102F700030B5204B4FF4FA541B68B3FBF4F341F225
:102F8000883463435B1E02D24FF0004030BD446B77
:102F900014F0450FF6D02405F4D4436B5B0703D53A
:102FA00004218163084630BD436BDB0702D0012159
:102FB000816303E00369DBB28B4201D0012030BDA5
:102FC000C52181630021FFF77DFD10F4604F04D01F
:102FD000410406D54FF4005030BD000C1080002095
:102FE00030BD000402D54FF4805030BD4FF4803026
:102FF00030BD00001000002014494FF4FA52096857
:10300000B1FBF2F141F288325143491E02D24FF036
:1030100000407047426B12F0450FF6D01205F4D411
:10302000416B490703D50421816308467047416B12
:10303000C90703D00121816308467047416B4906E7
:1030400001D540218163002070470000100000205E
:103050002DE9F04788B00D460446FDF7C7FB002672
:10306000824600960196374608212068FFF7A6FDA4
:10307000002829D1B4F8500001042068FFF76AFD48
:10308000002821D1401E4FF00808CDE90208302069
:103090004FF00209CDE904090120CDE9067002A92B
:1030A0002068FFF7F9FC2068FFF73FFE00280BD1EE
:1030B0006F462068416B11F02A0F08D0416B090759
:1030C0001AD5C0F83880082008B0BDE8F087416BF9
:1030D000890205D5FFF70FFD47F82600761C02E0B0
:1030E000416B8904EAD5FDF781FBA0EB0A00401C87
:1030F000DFD14FF00040E7E7416B890703D5C0F807
:1031000038900220E0E7416B890603D520218163D6
:103110000846D9E740F23A518163019800BA286025
:10312000009800BA68600020CEE710B590B0044661
:103130000120ADF838002068FFF7C0FC002854D00B
:10314000606C032842D02068FFF7C3FD00284AD1F5
:1031500000212068FFF7B6FC606704212068FFF7B4
:10316000B1FCA06708212068FFF7ACFCE0670C21E8
:103170002068FFF7A7FCC4F88000606C032825D006
:103180000EA92068FFF702FE00282CD1606C0328EE
:103190001CD0BDF83800206501042068FFF7AFFDA2
:1031A000002820D100212068FFF78CFC60660421F4
:1031B0002068FFF787FCA06608212068FFF782FCE3
:1031C000E0660C212068FFF77DFC20670421206861
:1031D000FFF778FC000DE06403A92046FEF76CFAC7
:1031E00030B14FF0805010B010BD4FF08060FAE762
:1031F000B4F85000002302042068FFF751FD0028B6
:10320000F1D104F1100007C88DE8070094E80F0021
:10321000FFF75BFC0020E6E72DE9F84F00260446A7
:1032200000963546B0460068FFF7FAFC002827D123
:103230002068FFF71DFD4FF0805B4FF001094FF64E
:10324000FF7748B1A6642068FFF7EAFC002817D191
:10325000A06C012802D020E0C4F84890002120682A
:10326000FFF778FC58B918E000212068FFF772FCDE
:10327000002805D151462068FFF786FC10B158465A
:10328000BDE8F88F00212068FFF71CFC05464FEAD7
:10329000D0780098401C009002E0DFF82CA0009845
:1032A000B84202D2B8F1000FDED00098B84202D383
:1032B0004FF08070E4E7680002D5C4F8449000E065
:1032C00066640020DCE70000000010C138B50B4642
:1032D000009204460022802100F04AF8002804D021
:1032E000606D40F020006065032038BD2DE9F0419D
:1032F000124E002201213046FDF772FA9F2000F0A5
:1033000021F8002000F01EF80546002000F01AF811
:103310000446002000F016F8074601221146304608
:10332000FDF75EFA280440EA04210548394381424A
:1033300002D10020BDE8F0810120FBE70010014030
:103340001740EF0001B582B000208DF804004FF463
:103350007A700090012301AA02A90448FEF7BCFB81
:103360000028FDD19DF804000EBD0000680100207A
:103370002DE9F8431E46914688460446089DFDF710
:1033800035FA401B351AFDF731FA07462548006823
:10339000C0F3CB30684338E0701C37D0FDF726FA15
:1033A000C01BA84203D215B1009860B32CE020687E
:1033B000416821F0E00141606068B0F5827F0BD187
:1033C000A068B0F5004F02D0B0F5806F04D120683E
:1033D000016821F040010160A06AB0F5005F09D1E9
:1033E0002068016821F4005101602068016841F4FF
:1033F00000510160012084F85100002084F8500041
:103400000320BDE8F8830025401E009020688168F5
:1034100038EA010004D000214945BDD10020F0E781
:103420000121F9E710000020002001F0DFF94FF43E
:103430007A74204600F0BCFBFBE7000010B550207A
:1034400080F31188BFF34F8FBFF36F8F01F0F2FD50
:1034500018B104494FF080500860002080F31188B3
:1034600010BD000004ED00E030B58FB028216846A3
:10347000FCF7F1FE14210AA8FCF7EDFE0121080477
:10348000CDE900100024029402250491CDE90750F3
:103490004FF4E01009906846FDF7F2FE58B90F208E
:1034A000CDE90A056802CDE90C4002210AA80E9474
:1034B000FDF7D8FD08B1FCF7BDFFFDF769FE0FB0C1
:1034C00030BD70470148FEF766BC000008020020CE
:1034D000F0B502681C4B1D4D1D4E1E4F1E4C4FF08B
:1034E000804C984209D0A04207D0604505D0A84240
:1034F00003D0B04201D0B84204D122F0700E4A6825
:1035000042EA0E02984209D0A04207D0604505D099
:10351000A84203D0B04201D0B84203D122F4407592
:10352000CA682A434D6922F080022A4302608A68F1
:10353000C2620A688262984201D0A04201D1096940
:10354000016301214161F0BD002C014000040040F5
:1035500000080040000C00400034014010B5406AF3
:103560000021C185C184FEF7D7FC10BD01680C3174
:1035700051E8002F22F4907241E80023002BF5D18E
:103580000168143151E8002F22F0010241E80023C4
:10359000002BF5D1016B012909D101680C3151E8EB
:1035A000002F22F0100241E80023002BF5D120214A
:1035B00080F8421000210163704708B590F842106E
:1035C000222901D0022008BD82684FF480539A421C
:1035D00001D1016921B1816A9A421BD04AB10AE046
:1035E0000268816A5268C2F308020A80816A891CF3
:1035F00008E0026972B10268526802F07F020A7044
:10360000816A491C8162C18D491E0904090CC1856A
:1036100003D01BE002685268F1E70168CA6822F033
:103620002002CA600168CA6822F48072CA60016818
:103630004A6922F001024A61202180F842100021EB
:103640004163026B012A03D0FEF71EFE002008BD75
:10365000016301680C3151E8002F22F0100241E8AB
:103660000023002BF5D101680A68D20602D50A684A
:1036700049680091818DFEF74EFCE7E770B504467E
:1036800000680169E26821F4405111430161216938
:10369000A0680843616908432168CA6841F20C6365
:1036A0009A430243CA6020684169A26921F44071CB
:1036B000114341611E492068884202D1FDF79EFDF9
:1036C00001E0FDF78BFD00EBC00101EB001260682B
:1036D00064218000B2FBF0F3B3FBF1F36FF0180646
:1036E0007343B2FBF0F5B2FBF0F605EB8305322332
:1036F00003EB0515B5FBF1F5B6FBF1F605F0F005AA
:1037000005EB0615B2FBF0F6B2FBF0F0B0FBF1F002
:103710006FF01802504306EB800003EB0010B0FB83
:10372000F1F0216800F00F002844886070BD0000AF
:103730000038014081628285C285002141642221D6
:1037400080F84210016921B10168CA6842F48072B0
:10375000CA6001684A6942F001024A610068C168B2
:1037600041F02001C160002070472DE9F0419846EA
:1037700017460E460446069D27E0681C25D02DB14D
:10378000FDF734F8A0EB0800A8421ED920680C30E1
:1037900050E8001F21F4D07140E80012002AF5D152
:1037A0002068143050E8001F21F0010140E80012A9
:1037B000002AF5D1202084F8410084F8420000203E
:1037C00084F840000320BDE8F0812068006836EAF4
:1037D000000004D00020B842CFD00020F3E7012041
:1037E000F9E70000054800680168C943890602D46A
:1037F0004168C9B241600148FEF790BBC00100209A
:10380000FEE700000FB4054B10B503A9044A029867
:1038100000F028F810BC5DF814FB0000253B000800
:103820008C0000200907090E002804DB00F1E020CD
:1038300080F80014704700F00F0000F1E02080F8DD
:10384000141D704702E008C8121F08C1002AFAD1EF
:1038500070477047002001E001C1121F002AFBD110
:10386000704700002DE9FF4F8DB09B460F46044680
:10387000002606E025280BD05A460F999047641C75
:10388000761C20780028F5D111B03046BDE8F08FC5
:103890000025A8460122984900E0054314F8013F9D
:1038A000203B02FA03F00842F7D120782E2817D1E6
:1038B00014F8010F45F004052A280ED06FF02F02EE
:1038C0002078A0F1300109290AD808EB880102EB21
:1038D000410100EB0108641CF2E757F8048B641CFB
:1038E00020786C280DD004DC4C2812D06A2811D125
:1038F00004E074280DD07A280CD10AE045F40015B4
:1039000007E0617845F48015814202D1641C05F519
:103910008015641C2078692844D008DC0028B3D0C6
:10392000582867D063280FD0642808D13AE070285F
:1039300065D0732812D075285AD078285AD05A46A4
:103940000F999047761CD5E017F8040B8DF800000E
:1039500000208DF80100E946012003E057F8049BA0
:103960004FF0FF3069074FF0000501D40AE06D1CED
:1039700045450DDA8542FADB19F805100029F6D124
:1039800006E06D1C8542FCDB19F805100029F8D112
:103990002E4404E019F8010B5A460F9990476D1E0A
:1039A000F8D2A7E00A200021CDE90801C5F30250B2
:1039B00002280CD001CFC117021E71F100020CDAEF
:1039C0000023D0EB030063EB01012D2208E0FF1D73
:1039D00027F00707F7E80201EEE72A0504D52B22B6
:1039E0008DF8282001223CE0EA073AD02022F7E7B0
:1039F0000A2000E010200021CDE9080107E0102096
:103A0000002145F00405CDE908014FF00808C5F391
:103A10000250022810D001CF00214FF0000A2A07DF
:103A200020D52278702A0DD0DDE908C38CF0100C67
:103A30005CEA030C0CD015E0FF1D27F00707F7E840
:103A40000201EAE740228DF828204FF0010A0CE03D
:103A500050EA010306D030238DF828308DF8292054
:103A6000022292462278582A04D024A20DF120097D
:103A70000B9209E026A2F9E7DDE90823FCF7F6FB43
:103A80000B9B9B5C09F8013D50EA0102F4D1ADEBC0
:103A9000090020300890680701D44FF00108089908
:103AA000884503DD0898A8EB000000E00020804670
:103AB000002506E00AA85A46405D0F9990476D1C04
:103AC000761C5545F6DB04E030205A460F999047A6
:103AD000761CB8F10001A8F10108F5DC05E019F841
:103AE000010B5A460F999047761C0899481E08907A
:103AF0000029F4DC641CC4E60928010030313233AB
:103B00003435363738396162636465660000000019
:103B10003031323334353637383941424344454603
:103B20000000000013B54FF47A7301226946024881
:103B3000FEF7ABFB00981CBDC0010020FDF7D0F9DB
:103B4000FFF792FCFEF7ACFEFEF776FFFEF70CFFE8
:103B5000FEF74AFFFEF728FFFCF7E8FB00F042F80B
:103B6000FEF77EFE00F05AF8FCF75CFCFEE7000072
:103B7000002000F03BFE4FF47A74084D66002346A7
:103B8000082207A10948FEF780FB01212846FCF71F
:103B90001FFE304600F004FEF1E70000000C01407B
:103BA0006D795461736B0D0A00000000C0010020A4
:103BB00010B5EFF3058149B9EFF3108131B9084928
:103BC0000968022905D1EFF3118111B16FF00504E5
:103BD00003E0002408B100F0E3FD204610BD000022
:103BE00064000020EFF3058058B9EFF3108040B96E
:103BF00009490868022801D030B109E0EFF31180CB
:103C000030B16FF005007047012008600020704758
:103C10004FF0FF30704700006400002010B5EFF354
:103C2000058060B9EFF3108048B90B490868022895
:103C300002D0012806D00BE0EFF3118040B16FF005
:103C4000050010BD0220086000F05AFE002010BDE3
:103C50004FF0FF3010BD000064000020F0B585B0CB
:103C60004FEA01034FF00004EFF305810394A1BB79
:103C7000EFF3108189BB21490968022902D1EFF3D2
:103C8000118151BB48B3802618218DF8104004AD36
:103C900042B3176807B13D4697691FB139467F1E89
:103CA000382F02D21779FF0702D0002005B0F0BDEF
:103CB000576907B1BE08D2F808C0BCF1000F0DD09B
:103CC000D4685C2C18D312693AB137B18DE806106C
:103CD0003246294601F06FF903900DE0D7685FB9CD
:103CE00012694AB903AACDE90012B2B2294601F01D
:103CF00035F9012800D003940398D7E76400002029
:103D00002DE9F041134C0F46054666692068001DF9
:103D100000F016FC681C07D137B12168BDE8F041FE
:103D20000D48091D00F05CBC20683544B542456073
:103D3000216805D2A068BDE8F041091D00F038BC3B
:103D40006068091D00F034FC206B854200D22563B9
:103D5000BDE8F08114000020400700202DE9F0416B
:103D6000054600F049FC2D4C2069401C206120686C
:103D70002B4F10B1E06930B32BE02560206901289A
:103D800027D1002606EB860007EB800000F002FC3E
:103D9000761C382EF6D3234800F0FCFB2148143063
:103DA00000F0F8FB1F48283000F0F4FB1D483C30C1
:103DB00000F0F0FB1B48503000F0ECFB194860604D
:103DC0001430A06005E02068E96AC06A884200D823
:103DD0002560E06A401CE0626864E86AA169884284
:103DE00000D9A06100EB800007EB8000291D00F0E6
:103DF000F7FB00F021FCE06900280CD02068E96A9C
:103E0000C06A884207D208494FF080500860BFF36B
:103E10004F8FBFF36F8FBDE8F081000014000020CA
:103E200090020020F006002004ED00E038B500F01C
:103E3000E3FB104CA068C8B90F4800F0ABFB0E487C
:103E4000143000F0A7FB0C482060143060600A4B6F
:103E500000202833009003F1500210210A2000F0C6
:103E600021FEA06010B105A100F064FCBDE838405F
:103E700000F0E2BB5000002054070020546D725146
:103E80000000000030B4026C0B46002A0BD0C16861
:103E90001144C1604468A14201D30168C16030BCD3
:103EA0001846FCF7BFB930BC70472DE9F041856B6F
:103EB000174604460026026C82B1C7B1E068FCF7E1
:103EC000B1F9E168206C091AE1602268914202D2DE
:103ED0006168081AE060022F16D017E02068A8B9C0
:103EE000606801F00BF90646002060600EE0A068F3
:103EF000FCF798F9216CA0680844A06061688842CA
:103F000004D32068A06001E005B16D1E6D1CA5639F
:103F10003046BDE8F08110B5044690F8590058B11C
:103F200001280CD002280FD0502080F31188BFF355
:103F30004F8FBFF36F8FFEE7206B00F091FB2046A1
:103F4000BDE8104000F08CBB10BD000010484FF4DD
:103F50004061420706D0C01D0D4920F00700411AFC
:103F6000C1F540610B4A00230144C2E9000308394E
:103F7000103A21F0070111604B600B600B1AC0E989
:103F8000001393604FF000405360D0607047000012
:103F9000240F002078000020144E154CA6F29C47F8
:103FA0004FF08058DFF84C9012E000BF00F024FB87
:103FB000F068C568281D00F0C3FA2069401E206122
:103FC000E068401EE06000F037FB2846FFF7A3FFE3
:103FD000E0680028EAD138680128F9D9C9F80080DA
:103FE000BFF34F8FBFF36F8FF2E700002C07002065
:103FF0001400002004ED00E070B51D46049C51B192
:10400000C4F80020C4E90F010121204600F07EFD24
:1040100084F84C5070BD2460F4E72DE9F0470E465B
:10402000DDE909841746824691009946089DA5223C
:10403000206BFCF709F96FF00301206B01EB87019E
:10404000084420F00707780707D0502080F3118834
:10405000BFF34F8FBFF36F8FFEE72218315C82F8FA
:104060003410315C11B1401C1028F6D3002684F8BE
:104070004360382D00D33725E562C4E91356201D6F
:1040800000F093FA04F1180000F08FFA2461C5F1F2
:1040900038006462A061666584F858604A465146FB
:1040A000384600F03BFA2060B8F1000F01D0C8F8A4
:1040B0000040BDE8F087000030B5114900E011462E
:1040C0000A688242FBD34B685C18844203D1406883
:1040D00018444860084643681C18944209D1084CAB
:1040E000103C2468A24209D052681A4442600A680F
:1040F00012680260814200D0086030BD0460F9E7B8
:104100007800002070B5002441600B4D00619142A1
:1041100006D8D11A8269914206D2011D686807E06B
:104120009A4203D2994201D3012403E0011D286879
:1041300000F03EFA204670BD5000002010B5044645
:1041400000F05AFAA06B28B15FF0000400F074FA96
:10415000204610BD0124F9E730B589B0304D55E057
:104160000498002806DADDE90601059A90470498CC
:1041700000284BDB069C606910B1201D00F0E0F9BF
:1041800002A800F0B9F8024604980A283ED2DFE8F7
:1041900000F00505053D263705053D260598A16972
:1041A000034601442046FFF7ADFF00B3616A204695
:1041B0008847E069012829D1002000900598A1696D
:1041C000002342181946204601F0A2F878B9502081
:1041D00080F31188BFF34F8FBFF36F8FFEE7059811
:1041E000A06128B1811813462046FFF78BFF0DE030
:1041F000502080F31188BFF34F8FBFF36F8FFEE71E
:1042000094F82C0010B9204600F02AFA002204A9E4
:10421000A86800F0CDFD0028A2D109B030BD000093
:10422000500000202DE9FC410F46054600F0ACFB94
:1042300001A800F061F80446019818B100F0D6FF1B
:10424000BDE8FC81224EAFB170680068A8B30027BA
:10425000291B3A46B06800F081FA00F0C7FF002839
:10426000EED11C494FF080500860BFF34F8FBFF371
:104270006F8FE5E7A542EBD800F0B8FF306827461E
:10428000C068C468201D00F05BF9E069012810D106
:10429000A0692B4641193A462046FFF733FF40B14B
:1042A00000200346014600902A46204601F030F8DF
:1042B00020B1616A20468847C2E707E0502080F3BA
:1042C0001188BFF34F8FBFF36F8FFEE70127BFE762
:1042D0005000002004ED00E006484168096829B15B
:1042E0004168C968C9684968016370474FF0FF3188
:1042F000FAE700001400002070B5054600F094FEB7
:10430000064E04463069844203D200F009F80120C9
:1043100000E0002028602046346170BD500000207D
:10432000F8B5194D1FE0C068C4680668201D00F08C
:1043300007F9616A20468847E069012813D1A0691E
:104340003044B04206D924616060211D286800F025
:104350002FF908E00020034601460090324620462F
:1043600000F0D6FF38B1286801680029DBD1696800
:10437000C5E90010F8BD502080F31188BFF34F8FBE
:10438000BFF36F8FFEE70000500000200848406830
:10439000401C4FF0500080F3118804D0BFF34F8FC2
:1043A000BFF36F8FFEE7BFF34F8FBFF36F8FFEE753
:1043B00080000020074C2068016841B1C0680021DE
:1043C000D0F80000FFF72EFFFFF7C6FEF3E701214C
:1043D0000020F7E7500000202DE9F041044600F0EE
:1043E0000BF994F9455004F1240609E0606A48B1DC
:1043F000304600F0C3FE08B100F048FA6D1E6DB201
:10440000002DF3DC4FF0FF3684F8456000F014F91E
:1044100000F0F2F894F9445004F1100709E0206923
:1044200048B1384600F0AAFE08B100F02FFA6D1E20
:104430006DB2002DF3DC84F84460BDE8F04100F07B
:10444000FBB800002DE9F0410546002700F09CFA7A
:10445000314E306808B9FFF779FDF06805424BD15D
:10446000C5B3083568070ED005F00700C0F1080095
:104470000544680707D0502080F31188BFF34F8FA1
:10448000BFF36F8FFEE72DB37068854234D82248A2
:10449000103001460C6801E020460C466168A942D4
:1044A00002D221680029F7D131688C4224D00768F4
:1044B0002168016060680837411B10290FD9601915
:1044C000420708D0502080F31188BFF34F8FBFF30D
:1044D0006F8FFEE710E041606560FFF7EDFD6168FA
:1044E0007068401A7060B268904200D2B060F068A4
:1044F00001430020C4E9000100F078FE780707D0EE
:10450000502080F31188BFF34F8FBFF36F8FFEE70A
:104510003846BDE8F08100006800002010B5031F98
:104520004FF080741C601B1F21F001011960191FDE
:10453000024B0B60143940380A6010BD8D430008EF
:10454000D0E9013201699A60D0E901235A604A68D2
:10455000824201D182684A60002202610868401EDE
:104560000860086870470000034B036003F15C00BB
:1045700008608020106070476C080020044B0360C6
:1045800003F15C0008604FF4807010607047000019
:10459000C80A002000F108014FF0FF32C0E9011203
:1045A000C160016100210160704700210161704715
:1045B00030B50B685A1C02D000F1080202E0026913
:1045C00004E02246546825689D42FAD953684B603E
:1045D00099608A60516008610168491C016030BDC2
:1045E00042684A6093688B60936859609160086183
:1045F0000168491C01607047502080F31188BFF3A7
:104600004F8FBFF36F8F0A494868401C48600128EC
:104610000CD10848006810F0FF0F07D0502080F33D
:104620001188BFF34F8FBFF36F8FFEE77047000015
:104630008000002004ED00E00849486828B1401ED1
:10464000486001D180F311887047502080F31188B1
:10465000BFF34F8FBFF36F8FFEE700008000002095
:1046600070B5002827D0144DA0F108046168E868EF
:10467000014207D1502080F31188BFF34F8FBFF361
:104680006F8FFEE722683AB1502080F31188BFF3A4
:104690004F8FBFF36F8FFEE78143616000F074F9C5
:1046A00060686968084468602046FFF705FDBDE85A
:1046B000704000F09BBD70BD680000204FF0E0200E
:1046C00000210161816105494FF47A720968B1FBEB
:1046D000F2F1491E4161072101617047100000207D
:1046E00010B5FBF779FD114910280ED300F1E02039
:1046F00090F8F0030A78904207D2502080F3118896
:10470000BFF34F8FBFF36F8FFEE7094800688968DA
:1047100000F4E060884207D9502080F31188BFF38D
:104720004F8FBFF36F8FFEE710BD000080000020A9
:104730000CED00E010B5084B002200BF53F83240EA
:104740001CB1521C082AF9D310BD43F8321003EBF8
:10475000C201486010BD00005002002070B515462F
:104760000E460446FFF748FF94F944100020491C08
:1047700001D184F8440094F94510491C01D184F812
:104780004500FFF759FFA06B28B92A46314604F1CE
:10479000240000F099F82046BDE87040FFF71CBEE9
:1047A00010B5020014D00F48806B38B1502080F350
:1047B0001188BFF34F8FBFF36F8FFEE700F0E4F86F
:1047C00000211046FFF79CFA00F010FD002807D1E9
:1047D00005494FF080500860BFF34F8FBFF36F8FD4
:1047E00010BD00001400002004ED00E070B5054687
:1047F000FFF702FF1E4C05B92568281DFFF7A0FE34
:10480000A86A18B105F11800FFF79AFEE06A401C8B
:10481000E0622068854207D1291D1648FFF7E0FEB7
:10482000E068401CE06007E02069401E20612846E7
:10483000FFF771FBFFF750FDFFF7FEFEE069002870
:1048400014D02068854211D1A06B38B1502080F37C
:104850001188BFF34F8FBFF36F8FFEE706494FF00C
:1048600080500860BFF34F8FBFF36F8F70BD0000A3
:10487000140000202C07002004ED00E002498A6AA1
:10488000026049694160704714000020014901201D
:10489000486270471400002010B50C4650B1094919
:1048A00009681831FFF784FE2046BDE81040012159
:1048B000FFF726BA502080F31188BFF34F8FBFF364
:1048C0006F8FFEE71400002070B514460D4668B1E6
:1048D0000A4909681831FFF783FE0CB14FF0FF3524
:1048E00021462846BDE87040FFF70ABA502080F301
:1048F0001188BFF34F8FBFF36F8FFEE714000020C6
:1049000030B587B00024039405AA04A903A8049431
:10491000FFF72AFEDDE903010094CDE90110002331
:1049200015A11748059A00F046FB164D002868634C
:104930001FD000F0BDFC012809D0401C19D1502027
:1049400080F31188BFF34F8FBFF36F8FFEE75020C6
:1049500080F31188BFF34F8FBFF36F8F4FF0FF309D
:1049600028630120E8616C6107B0BDE8304000F0C9
:1049700045B807B030BD000049444C450000000078
:10498000993F0008140000200248816B491C816394
:104990007047000014000020164810B5816B11B15B
:1049A0000121416210BD002141628169124A01E08A
:1049B000B9B1491E01EB810352F82330002BF7D027
:1049C00001EB810302EB830202F1080453685B6888
:1049D0005360A34201D15B685360DA680260816171
:1049E00010BD502080F31188BFF34F8FBFF36F8F3E
:1049F000FEE7000014000020900200201CB52649AC
:104A000008780190FF20087008788DF800009DF864
:104A100000009DF8002000F0F000904207D05020E8
:104A200080F31188BFF34F8FBFF36F8FFEE79DF8C0
:104A300000001A4B00F0500018700720986005E045
:104A40009DF8002052008DF80020401E9DF80020A7
:104A50001206F5D49860032807D0502080F31188FF
:104A6000BFF34F8FBFF36F8FFEE74FF44070986036
:104A7000019808700A48016841F4700101600168FA
:104A800041F070410160FFF719FE00205860FBF70C
:104A90006DFB00201CBD000000E400E08000002051
:104AA00020ED00E038B5049D18B153B1CAB181B111
:104AB00020E0502080F31188BFF34F8FBFF36F8F3A
:104AC000FEE7502080F31188BFF34F8FBFF36F8F45
:104AD000FEE7502080F31188BFF34F8FBFF36F8F35
:104AE000FEE739B1502080F31188BFF34F8FBFF339
:104AF0006F8FFEE750241C46012384F846302B4676
:104B00000094FFF779FA204638BD000070B50D46D5
:104B1000040025D0FFF770FDD4E90F20216802FBC7
:104B2000001161600021A1632168A1600A46D4E9F7
:104B30000F01401E00FB0121E16021464FF0FF30D4
:104B400001F8440F487004F110008DB1FFF722FD09
:104B500004F12400FFF71EFDFFF76EFD012070BD7C
:104B6000502080F31188BFF34F8FBFF36F8FFEE7A4
:104B700021690029F0D000F001FB0028ECD00449A5
:104B80004FF080500860BFF34F8FBFF36F8FE3E7A4
:104B900004ED00E02DE9FF4782B01D468A464FF044
:104BA0000008040003D0BAF1000F08D011E0502033
:104BB00080F31188BFF34F8FBFF36F8FFEE7206C38
:104BC00038B1502080F31188BFF34F8FBFF36F8F40
:104BD000FEE7022D0AD1E06B012807D0502080F3B8
:104BE0001188BFF34F8FBFF36F8FFEE700F00EFA0F
:104BF0003F4F4FF000094FF0805648B9049838B144
:104C0000502080F31188BFF34F8FBFF36F8FFEE703
:104C1000FFF7F2FCA06BE16B884207D3022D05D0B1
:104C20000498D0B1B8F1000F1AD01EE02A465146C0
:104C30002046FFF73AF9616A19B104F1240000F047
:104C40009DFA20B13E60BFF34F8FBFF36F8FFFF728
:104C5000F3FC012006B0BDE8F087FFF7EDFC22E091
:104C60006846FFF70BFE4FF00108FFF7E5FCFFF782
:104C70008BFEFFF7C1FC94F94400401C01D184F87D
:104C8000449094F94500401C01D184F84590FFF709
:104C9000D3FC04A9684600F027F930B12046FFF79D
:104CA0009BFB00F0A3FA0020D4E7FFF7A5FCA06B64
:104CB000E16B884213D1FFF7BFFC04F110000499A7
:104CC000FFF7EAFD2046FFF787FB00F08FFA002888
:104CD0009ED13E60BFF34F8FBFF36F8F98E7FFF712
:104CE000ABFC2046FFF778FB00F080FA90E700006D
:104CF00004ED00E02DE9F0471F4690468946040088
:104D000003D0B9F1000F08D011E0502080F31188D2
:104D1000BFF34F8FBFF36F8FFEE7206C38B1502089
:104D200080F31188BFF34F8FBFF36F8FFEE7022F21
:104D30000AD1E06B012807D0502080F31188BFF31F
:104D40004F8FBFF36F8FFEE7FFF7CAFC5020EFF3E2
:104D5000118680F31188BFF34F8FBFF36F8FA06B65
:104D6000E16B884206D3022F04D0002086F311881D
:104D7000BDE8F08794F945503A4649462046FFF78A
:104D800094F8681C04D06D1C84F845500120EDE7B0
:104D9000606A0028FAD004F1240000F0EFF900283E
:104DA000F4D0B8F1000FF1D00121C8F80010EDE700
:104DB0002DE9F747002683B08A46040003D0BAF1F4
:104DC000000F08D011E0502080F31188BFF34F8FFF
:104DD000BFF36F8FFEE7206C38B1502080F311884D
:104DE000BFF34F8FBFF36F8FFEE700F00FF9DFF8CF
:104DF000F4804FF000094FF0805748B9059838B15A
:104E0000502080F31188BFF34F8FBFF36F8FFEE701
:104E1000FFF7F2FBA56BC5B151462046FFF732F80C
:104E20006D1EA563206950B104F1100000F0A6F9D1
:104E300028B1C8F80070BFF34F8FBFF36F8FFFF733
:104E4000FBFB012006B0BDE8F087059808B11EB154
:104E500006E0FFF7F1FB27E06846FFF70FFD0126AC
:104E6000FFF7EAFBFFF790FDFFF7C6FB94F944005C
:104E7000401C01D184F8449094F94500401C01D1B4
:104E800084F84590FFF7D8FB05A9684600F02CF898
:104E9000002820460AD0FFF79FFA00F0A7F9204625
:104EA000FFF74CF90028B3D00020CBE7FFF746F915
:104EB00090B104F124000599FFF7EEFC2046FFF7BE
:104EC0008BFA00F093F90028A2D1C8F80070BFF364
:104ED0004F8FBFF36F8F9BE72046FFF77DFA00F0FF
:104EE00085F995E704ED00E02DE9F0410C46050059
:104EF00011D0C4B1FFF780FB174B5A696E68206868
:104F0000911B471C17D02F689B6A9F4219D096426D
:104F100017D8012410E0502080F31188BFF34F8F81
:104F2000BFF36F8FFEE7502080F31188BFF34F8FE0
:104F3000BFF36F8FFEE70024FFF77EFB2046BDE83E
:104F4000F081884205D9401A20602846FFF796FC78
:104F5000F1E700202060DCE7140000202DE9FF5F6E
:104F60008346DDE90E87994616468A469000FFF78C
:104F700069FA05001CD05C20FFF764FA040014D025
:104F80000020256384F85900CDE90240CDE900876F
:104F90004B46324651465846FFF73FF82046FEF74B
:104FA000DDFE012004B0BDE8F09F2846FFF758FB66
:104FB0004FF0FF30F6E7F0B585B0DDE90B640A9DF0
:104FC000A6B1DCB15C2700972663022684F85960FD
:104FD000002604AFCDE90246CDE90057FFF71DF8E2
:104FE0002046FEF7BBFE049805B0F0BD502080F3CC
:104FF0001188BFF34F8FBFF36F8FFEE7502080F310
:105000001188BFF34F8FBFF36F8FFEE70548C1696B
:1050100019B1806B18B10020704701207047022041
:1050200070470000140000200148406970470000EC
:10503000140000202DE9F0412E4C0027A06B40B158
:10504000206A401C2062606A00B101273846BDE832
:10505000F0816669761C666113D16068006838B1BA
:10506000502080F31188BFF34F8FBFF36F8FFEE79F
:105070006068A1686160A060A06A401CA062FFF740
:105080002BF9206BDFF87080864209D360680068D6
:1050900080B16068C068C568686886420DD22063C8
:1050A0002068C06A00EB800158F821000128CAD9A5
:1050B0000127C8E74FF0FF30F1E7281DFFF740FA5E
:1050C000A86A18B105F11800FFF73AFAE86AA16971
:1050D000884200D9A06100EB800108EB8100291D06
:1050E000FFF77EFAE86A2168C96A8842CED30127B1
:1050F000CCE70000140000209002002070B50400EE
:105100004FF0000133D01B4D2868844207D0502057
:1051100080F31188BFF34F8FBFF36F8FFEE7206DD1
:1051200038B1401E2065E36CE26A9A421FD040B15C
:105130001DE0502080F31188BFF34F8FBFF36F8FB6
:10514000FEE7201DFFF7FCF9E06CE062C0F13800DB
:10515000A061E06AA969884200D9A861064900EB0C
:10516000800001EB8000211DFFF73AFA012108467B
:1051700070BD0000140000209002002070B5C068CF
:10518000C46854B104F118000646FFF7D9F9144D6C
:10519000A86B50B13146134815E0502080F31188B8
:1051A000BFF34F8FBFF36F8FFEE7201DFFF7C8F9E6
:1051B000E06AA969884200D9A8610B4900EB800028
:1051C00001EB8000211DFFF70BFAE06A2968C96A2C
:1051D000884202D90120686270BD002070BD0000C5
:1051E0001400002018070020900200202DE9F0474D
:1051F0002C4D00242746A86B38B1FFF7FDF9A86BAA
:10520000401EA863A86B40B146E0502080F311888F
:10521000BFF34F8FBFF36F8FFEE72969224E012046
:10522000D1B3A6F5916980463068E0B1F068C468F2
:1052300004F11800FFF784F9201DFFF781F9E06AF7
:10524000A969884200D9A86100EB800109EB8100BF
:10525000211DFFF7C5F9E06A2968C96A8842E3D3CE
:10526000C5F82480E0E70CB1FFF736F82C6A4CB1A2
:105270004FEA0806FFF7DEFE00B16E62641EF9D148
:1052800000202862686A38B1084901273807086099
:10529000BFF34F8FBFF36F8FFFF7CEF93846BDE8EE
:1052A000F0870000140000201807002004ED00E043
:1052B00010B586B0FEF7BAFD114CA068B8B1002059
:1052C0000390049005AA04A903A8FFF757F9DDE9A4
:1052D000032102208DE8070000230AA10B48059A4C
:1052E000FFF769FEE06010B106B0012010BD50204C
:1052F00080F31188BFF34F8FBFF36F8FFEE700007D
:1053000050000020546D722053766300B5430008AE
:105310002DE9FF411E46134602000A9D4FF0000092
:1053200016D0144CA768002F0FD0CDE900130292BD
:10533000062917DAFFF76AFE02284FF000030FD0A4
:1053400000226946A068FFF725FC04B0BDE8F081A3
:10535000502080F31188BFF34F8FBFF36F8FFEE7AC
:105360002A46EEE70023324669463846FFF7C2FC7C
:10537000EBE7000050000020C853000800000000C8
:10538000000000000000000000000000000200001B
:1053900018000000000000000000000001020203ED
:1053A0000405060708090A0B0C0D0E0F101000006B
:1053B00000000000000001020304060708090000C5
:1053C000000001020304000064656661756C74549A
:1053D00061736B00F453000800000020900000008F
:1053E000443800088454000890000020981E0000F3
:1053F0005438000800000000010000001000000008
:10540000000000000024F400000000000000000084
:10541000000000000000000000000000000000008C
:10542000000000000000000000000000000000007C
:10543000000000000000000000000000000000006C
:10544000000000000000000000000000000000005C
:10545000000000000000000000000000000000004C
:10546000000000000000000000000000000000003C
:105470000000000000000000AAAAAAAA0000000084
:045480000000000028
:0400000508000131BD
:00000001FF
